{
  "_format": "hh-sol-artifact-1",
  "contractName": "MintableERC721",
  "sourceName": "contracts/test/Mintable.sol",
  "abi": [
    {
      "inputs": [],
      "stateMutability": "nonpayable",
      "type": "constructor"
    },
    {
      "anonymous": false,
      "inputs": [
        {
          "indexed": true,
          "internalType": "address",
          "name": "owner",
          "type": "address"
        },
        {
          "indexed": true,
          "internalType": "address",
          "name": "approved",
          "type": "address"
        },
        {
          "indexed": true,
          "internalType": "uint256",
          "name": "tokenId",
          "type": "uint256"
        }
      ],
      "name": "Approval",
      "type": "event"
    },
    {
      "anonymous": false,
      "inputs": [
        {
          "indexed": true,
          "internalType": "address",
          "name": "owner",
          "type": "address"
        },
        {
          "indexed": true,
          "internalType": "address",
          "name": "operator",
          "type": "address"
        },
        {
          "indexed": false,
          "internalType": "bool",
          "name": "approved",
          "type": "bool"
        }
      ],
      "name": "ApprovalForAll",
      "type": "event"
    },
    {
      "anonymous": false,
      "inputs": [
        {
          "indexed": true,
          "internalType": "address",
          "name": "from",
          "type": "address"
        },
        {
          "indexed": true,
          "internalType": "address",
          "name": "to",
          "type": "address"
        },
        {
          "indexed": true,
          "internalType": "uint256",
          "name": "tokenId",
          "type": "uint256"
        }
      ],
      "name": "Transfer",
      "type": "event"
    },
    {
      "inputs": [
        {
          "internalType": "address",
          "name": "to",
          "type": "address"
        },
        {
          "internalType": "uint256",
          "name": "tokenId",
          "type": "uint256"
        }
      ],
      "name": "approve",
      "outputs": [],
      "stateMutability": "nonpayable",
      "type": "function"
    },
    {
      "inputs": [
        {
          "internalType": "address",
          "name": "owner",
          "type": "address"
        }
      ],
      "name": "balanceOf",
      "outputs": [
        {
          "internalType": "uint256",
          "name": "",
          "type": "uint256"
        }
      ],
      "stateMutability": "view",
      "type": "function"
    },
    {
      "inputs": [
        {
          "internalType": "uint256",
          "name": "tokenId",
          "type": "uint256"
        }
      ],
      "name": "getApproved",
      "outputs": [
        {
          "internalType": "address",
          "name": "",
          "type": "address"
        }
      ],
      "stateMutability": "view",
      "type": "function"
    },
    {
      "inputs": [
        {
          "internalType": "address",
          "name": "owner",
          "type": "address"
        },
        {
          "internalType": "address",
          "name": "operator",
          "type": "address"
        }
      ],
      "name": "isApprovedForAll",
      "outputs": [
        {
          "internalType": "bool",
          "name": "",
          "type": "bool"
        }
      ],
      "stateMutability": "view",
      "type": "function"
    },
    {
      "inputs": [
        {
          "internalType": "uint256",
          "name": "tokenId",
          "type": "uint256"
        },
        {
          "internalType": "address",
          "name": "owner",
          "type": "address"
        }
      ],
      "name": "mint",
      "outputs": [],
      "stateMutability": "nonpayable",
      "type": "function"
    },
    {
      "inputs": [
        {
          "internalType": "uint256",
          "name": "tokenId",
          "type": "uint256"
        }
      ],
      "name": "mint",
      "outputs": [],
      "stateMutability": "nonpayable",
      "type": "function"
    },
    {
      "inputs": [],
      "name": "name",
      "outputs": [
        {
          "internalType": "string",
          "name": "",
          "type": "string"
        }
      ],
      "stateMutability": "view",
      "type": "function"
    },
    {
      "inputs": [
        {
          "internalType": "uint256",
          "name": "tokenId",
          "type": "uint256"
        }
      ],
      "name": "ownerOf",
      "outputs": [
        {
          "internalType": "address",
          "name": "",
          "type": "address"
        }
      ],
      "stateMutability": "view",
      "type": "function"
    },
    {
      "inputs": [
        {
          "internalType": "address",
          "name": "from",
          "type": "address"
        },
        {
          "internalType": "address",
          "name": "to",
          "type": "address"
        },
        {
          "internalType": "uint256",
          "name": "tokenId",
          "type": "uint256"
        }
      ],
      "name": "safeTransferFrom",
      "outputs": [],
      "stateMutability": "nonpayable",
      "type": "function"
    },
    {
      "inputs": [
        {
          "internalType": "address",
          "name": "from",
          "type": "address"
        },
        {
          "internalType": "address",
          "name": "to",
          "type": "address"
        },
        {
          "internalType": "uint256",
          "name": "tokenId",
          "type": "uint256"
        },
        {
          "internalType": "bytes",
          "name": "_data",
          "type": "bytes"
        }
      ],
      "name": "safeTransferFrom",
      "outputs": [],
      "stateMutability": "nonpayable",
      "type": "function"
    },
    {
      "inputs": [
        {
          "internalType": "address",
          "name": "operator",
          "type": "address"
        },
        {
          "internalType": "bool",
          "name": "approved",
          "type": "bool"
        }
      ],
      "name": "setApprovalForAll",
      "outputs": [],
      "stateMutability": "nonpayable",
      "type": "function"
    },
    {
      "inputs": [
        {
          "internalType": "bytes4",
          "name": "interfaceId",
          "type": "bytes4"
        }
      ],
      "name": "supportsInterface",
      "outputs": [
        {
          "internalType": "bool",
          "name": "",
          "type": "bool"
        }
      ],
      "stateMutability": "view",
      "type": "function"
    },
    {
      "inputs": [],
      "name": "symbol",
      "outputs": [
        {
          "internalType": "string",
          "name": "",
          "type": "string"
        }
      ],
      "stateMutability": "view",
      "type": "function"
    },
    {
      "inputs": [
        {
          "internalType": "uint256",
          "name": "tokenId",
          "type": "uint256"
        }
      ],
      "name": "tokenURI",
      "outputs": [
        {
          "internalType": "string",
          "name": "",
          "type": "string"
        }
      ],
      "stateMutability": "view",
      "type": "function"
    },
    {
      "inputs": [
        {
          "internalType": "address",
          "name": "from",
          "type": "address"
        },
        {
          "internalType": "address",
          "name": "to",
          "type": "address"
        },
        {
          "internalType": "uint256",
          "name": "tokenId",
          "type": "uint256"
        }
      ],
      "name": "transferFrom",
      "outputs": [],
      "stateMutability": "nonpayable",
      "type": "function"
    }
  ],
  "bytecode": "0x60806040523480156200001157600080fd5b5060408051808201825260038082526213919560ea1b60208084018281528551808701909652928552840152815191929162000050916000916200006f565b508051620000669060019060208401906200006f565b50505062000152565b8280546200007d9062000115565b90600052602060002090601f016020900481019282620000a15760008555620000ec565b82601f10620000bc57805160ff1916838001178555620000ec565b82800160010185558215620000ec579182015b82811115620000ec578251825591602001919060010190620000cf565b50620000fa929150620000fe565b5090565b5b80821115620000fa5760008155600101620000ff565b600181811c908216806200012a57607f821691505b602082108114156200014c57634e487b7160e01b600052602260045260246000fd5b50919050565b61143e80620001626000396000f3fe608060405234801561001057600080fd5b50600436106100f55760003560e01c806370a0823111610097578063a22cb46511610066578063a22cb465146101ff578063b88d4fde14610212578063c87b56dd14610225578063e985e9c51461023857600080fd5b806370a08231146101b057806394bf804d146101d157806395d89b41146101e4578063a0712d68146101ec57600080fd5b8063095ea7b3116100d3578063095ea7b31461016257806323b872dd1461017757806342842e0e1461018a5780636352211e1461019d57600080fd5b806301ffc9a7146100fa57806306fdde0314610122578063081812fc14610137575b600080fd5b61010d6101083660046110f0565b610274565b60405190151581526020015b60405180910390f35b61012a6102c6565b60405161011991906111fa565b61014a610145366004611128565b610358565b6040516001600160a01b039091168152602001610119565b6101756101703660046110c7565b6103f2565b005b610175610185366004610f7d565b610508565b610175610198366004610f7d565b610539565b61014a6101ab366004611128565b610554565b6101c36101be366004610f31565b6105cb565b604051908152602001610119565b6101756101df366004611140565b610652565b61012a610660565b6101756101fa366004611128565b61066f565b61017561020d36600461108d565b61067c565b610175610220366004610fb8565b610741565b61012a610233366004611128565b610779565b61010d610246366004610f4b565b6001600160a01b03918216600090815260056020908152604080832093909416825291909152205460ff1690565b60006001600160e01b031982166380ac58cd60e01b14806102a557506001600160e01b03198216635b5e139f60e01b145b806102c057506301ffc9a760e01b6001600160e01b03198316145b92915050565b6060600080546102d59061131f565b80601f01602080910402602001604051908101604052809291908181526020018280546103019061131f565b801561034e5780601f106103235761010080835404028352916020019161034e565b820191906000526020600020905b81548152906001019060200180831161033157829003601f168201915b5050505050905090565b6000818152600260205260408120546001600160a01b03166103d65760405162461bcd60e51b815260206004820152602c60248201527f4552433732313a20617070726f76656420717565727920666f72206e6f6e657860448201526b34b9ba32b73a103a37b5b2b760a11b60648201526084015b60405180910390fd5b506000908152600460205260409020546001600160a01b031690565b60006103fd82610554565b9050806001600160a01b0316836001600160a01b0316141561046b5760405162461bcd60e51b815260206004820152602160248201527f4552433732313a20617070726f76616c20746f2063757272656e74206f776e656044820152603960f91b60648201526084016103cd565b336001600160a01b038216148061048757506104878133610246565b6104f95760405162461bcd60e51b815260206004820152603860248201527f4552433732313a20617070726f76652063616c6c6572206973206e6f74206f7760448201527f6e6572206e6f7220617070726f76656420666f7220616c6c000000000000000060648201526084016103cd565b6105038383610854565b505050565b61051233826108c2565b61052e5760405162461bcd60e51b81526004016103cd9061125f565b6105038383836109b9565b61050383838360405180602001604052806000815250610741565b6000818152600260205260408120546001600160a01b0316806102c05760405162461bcd60e51b815260206004820152602960248201527f4552433732313a206f776e657220717565727920666f72206e6f6e657869737460448201526832b73a103a37b5b2b760b91b60648201526084016103cd565b60006001600160a01b0382166106365760405162461bcd60e51b815260206004820152602a60248201527f4552433732313a2062616c616e636520717565727920666f7220746865207a65604482015269726f206164647265737360b01b60648201526084016103cd565b506001600160a01b031660009081526003602052604090205490565b61065c8183610b59565b5050565b6060600180546102d59061131f565b6106793382610b59565b50565b6001600160a01b0382163314156106d55760405162461bcd60e51b815260206004820152601960248201527f4552433732313a20617070726f766520746f2063616c6c65720000000000000060448201526064016103cd565b3360008181526005602090815260408083206001600160a01b03871680855290835292819020805460ff191686151590811790915590519081529192917f17307eab39ab6107e8899845ad3d59bd9653f200f220920489ca2b5937696c31910160405180910390a35050565b61074b33836108c2565b6107675760405162461bcd60e51b81526004016103cd9061125f565b61077384848484610c9b565b50505050565b6000818152600260205260409020546060906001600160a01b03166107f85760405162461bcd60e51b815260206004820152602f60248201527f4552433732314d657461646174613a2055524920717565727920666f72206e6f60448201526e3732bc34b9ba32b73a103a37b5b2b760891b60648201526084016103cd565b6000610802610cce565b90506000815111610822576040518060200160405280600081525061084d565b8061082c84610cee565b60405160200161083d92919061118e565b6040516020818303038152906040525b9392505050565b600081815260046020526040902080546001600160a01b0319166001600160a01b038416908117909155819061088982610554565b6001600160a01b03167f8c5be1e5ebec7d5bd14f71427d1e84f3dd0314c0f7b2291e5b200ac8c7c3b92560405160405180910390a45050565b6000818152600260205260408120546001600160a01b031661093b5760405162461bcd60e51b815260206004820152602c60248201527f4552433732313a206f70657261746f7220717565727920666f72206e6f6e657860448201526b34b9ba32b73a103a37b5b2b760a11b60648201526084016103cd565b600061094683610554565b9050806001600160a01b0316846001600160a01b031614806109815750836001600160a01b031661097684610358565b6001600160a01b0316145b806109b157506001600160a01b0380821660009081526005602090815260408083209388168352929052205460ff165b949350505050565b826001600160a01b03166109cc82610554565b6001600160a01b031614610a345760405162461bcd60e51b815260206004820152602960248201527f4552433732313a207472616e73666572206f6620746f6b656e2074686174206960448201526839903737ba1037bbb760b91b60648201526084016103cd565b6001600160a01b038216610a965760405162461bcd60e51b8152602060048201526024808201527f4552433732313a207472616e7366657220746f20746865207a65726f206164646044820152637265737360e01b60648201526084016103cd565b610aa1600082610854565b6001600160a01b0383166000908152600360205260408120805460019290610aca9084906112dc565b90915550506001600160a01b0382166000908152600360205260408120805460019290610af89084906112b0565b909155505060008181526002602052604080822080546001600160a01b0319166001600160a01b0386811691821790925591518493918716917fddf252ad1be2c89b69c2b068fc378daa952ba7f163c4a11628f55a4df523b3ef91a4505050565b6001600160a01b038216610baf5760405162461bcd60e51b815260206004820181905260248201527f4552433732313a206d696e7420746f20746865207a65726f206164647265737360448201526064016103cd565b6000818152600260205260409020546001600160a01b031615610c145760405162461bcd60e51b815260206004820152601c60248201527f4552433732313a20746f6b656e20616c7265616479206d696e7465640000000060448201526064016103cd565b6001600160a01b0382166000908152600360205260408120805460019290610c3d9084906112b0565b909155505060008181526002602052604080822080546001600160a01b0319166001600160a01b03861690811790915590518392907fddf252ad1be2c89b69c2b068fc378daa952ba7f163c4a11628f55a4df523b3ef908290a45050565b610ca68484846109b9565b610cb284848484610e08565b6107735760405162461bcd60e51b81526004016103cd9061120d565b60606040518060600160405280602781526020016113e260279139905090565b606081610d125750506040805180820190915260018152600360fc1b602082015290565b8160005b8115610d3c5780610d268161135a565b9150610d359050600a836112c8565b9150610d16565b60008167ffffffffffffffff811115610d6557634e487b7160e01b600052604160045260246000fd5b6040519080825280601f01601f191660200182016040528015610d8f576020820181803683370190505b5090505b84156109b157610da46001836112dc565b9150610db1600a86611375565b610dbc9060306112b0565b60f81b818381518110610ddf57634e487b7160e01b600052603260045260246000fd5b60200101906001600160f81b031916908160001a905350610e01600a866112c8565b9450610d93565b60006001600160a01b0384163b15610f0a57604051630a85bd0160e11b81526001600160a01b0385169063150b7a0290610e4c9033908990889088906004016111bd565b602060405180830381600087803b158015610e6657600080fd5b505af1925050508015610e96575060408051601f3d908101601f19168201909252610e939181019061110c565b60015b610ef0573d808015610ec4576040519150601f19603f3d011682016040523d82523d6000602084013e610ec9565b606091505b508051610ee85760405162461bcd60e51b81526004016103cd9061120d565b805181602001fd5b6001600160e01b031916630a85bd0160e11b1490506109b1565b506001949350505050565b80356001600160a01b0381168114610f2c57600080fd5b919050565b600060208284031215610f42578081fd5b61084d82610f15565b60008060408385031215610f5d578081fd5b610f6683610f15565b9150610f7460208401610f15565b90509250929050565b600080600060608486031215610f91578081fd5b610f9a84610f15565b9250610fa860208501610f15565b9150604084013590509250925092565b60008060008060808587031215610fcd578081fd5b610fd685610f15565b9350610fe460208601610f15565b925060408501359150606085013567ffffffffffffffff80821115611007578283fd5b818701915087601f83011261101a578283fd5b81358181111561102c5761102c6113b5565b604051601f8201601f19908116603f01168101908382118183101715611054576110546113b5565b816040528281528a602084870101111561106c578586fd5b82602086016020830137918201602001949094529598949750929550505050565b6000806040838503121561109f578182fd5b6110a883610f15565b9150602083013580151581146110bc578182fd5b809150509250929050565b600080604083850312156110d9578182fd5b6110e283610f15565b946020939093013593505050565b600060208284031215611101578081fd5b813561084d816113cb565b60006020828403121561111d578081fd5b815161084d816113cb565b600060208284031215611139578081fd5b5035919050565b60008060408385031215611152578182fd5b82359150610f7460208401610f15565b6000815180845261117a8160208601602086016112f3565b601f01601f19169290920160200192915050565b600083516111a08184602088016112f3565b8351908301906111b48183602088016112f3565b01949350505050565b6001600160a01b03858116825284166020820152604081018390526080606082018190526000906111f090830184611162565b9695505050505050565b60208152600061084d6020830184611162565b60208082526032908201527f4552433732313a207472616e7366657220746f206e6f6e20455243373231526560408201527131b2b4bb32b91034b6b83632b6b2b73a32b960711b606082015260800190565b60208082526031908201527f4552433732313a207472616e736665722063616c6c6572206973206e6f74206f6040820152701ddb995c881b9bdc88185c1c1c9bdd9959607a1b606082015260800190565b600082198211156112c3576112c3611389565b500190565b6000826112d7576112d761139f565b500490565b6000828210156112ee576112ee611389565b500390565b60005b8381101561130e5781810151838201526020016112f6565b838111156107735750506000910152565b600181811c9082168061133357607f821691505b6020821081141561135457634e487b7160e01b600052602260045260246000fd5b50919050565b600060001982141561136e5761136e611389565b5060010190565b6000826113845761138461139f565b500690565b634e487b7160e01b600052601160045260246000fd5b634e487b7160e01b600052601260045260246000fd5b634e487b7160e01b600052604160045260246000fd5b6001600160e01b03198116811461067957600080fdfe68747470733a2f2f6578616d706c652e636f6d2f746f6b656e2f3732312f6d657461646174612fa26469706673582212201829cc5c58472e758ab30b857941cd560df74fdfe95c65feb2fec838023c311264736f6c63430008040033",
  "linkReferences": {},
  "deployedLinkReferences": {}
}