{
  "_format": "hh-sol-artifact-1",
  "contractName": "MintableERC1155",
  "sourceName": "contracts/test/Mintable.sol",
  "abi": [
    {
      "inputs": [],
      "stateMutability": "nonpayable",
      "type": "constructor"
    },
    {
      "anonymous": false,
      "inputs": [
        {
          "indexed": true,
          "internalType": "address",
          "name": "account",
          "type": "address"
        },
        {
          "indexed": true,
          "internalType": "address",
          "name": "operator",
          "type": "address"
        },
        {
          "indexed": false,
          "internalType": "bool",
          "name": "approved",
          "type": "bool"
        }
      ],
      "name": "ApprovalForAll",
      "type": "event"
    },
    {
      "anonymous": false,
      "inputs": [
        {
          "indexed": true,
          "internalType": "address",
          "name": "operator",
          "type": "address"
        },
        {
          "indexed": true,
          "internalType": "address",
          "name": "from",
          "type": "address"
        },
        {
          "indexed": true,
          "internalType": "address",
          "name": "to",
          "type": "address"
        },
        {
          "indexed": false,
          "internalType": "uint256[]",
          "name": "ids",
          "type": "uint256[]"
        },
        {
          "indexed": false,
          "internalType": "uint256[]",
          "name": "values",
          "type": "uint256[]"
        }
      ],
      "name": "TransferBatch",
      "type": "event"
    },
    {
      "anonymous": false,
      "inputs": [
        {
          "indexed": true,
          "internalType": "address",
          "name": "operator",
          "type": "address"
        },
        {
          "indexed": true,
          "internalType": "address",
          "name": "from",
          "type": "address"
        },
        {
          "indexed": true,
          "internalType": "address",
          "name": "to",
          "type": "address"
        },
        {
          "indexed": false,
          "internalType": "uint256",
          "name": "id",
          "type": "uint256"
        },
        {
          "indexed": false,
          "internalType": "uint256",
          "name": "value",
          "type": "uint256"
        }
      ],
      "name": "TransferSingle",
      "type": "event"
    },
    {
      "anonymous": false,
      "inputs": [
        {
          "indexed": false,
          "internalType": "string",
          "name": "value",
          "type": "string"
        },
        {
          "indexed": true,
          "internalType": "uint256",
          "name": "id",
          "type": "uint256"
        }
      ],
      "name": "URI",
      "type": "event"
    },
    {
      "inputs": [
        {
          "internalType": "address",
          "name": "account",
          "type": "address"
        },
        {
          "internalType": "uint256",
          "name": "id",
          "type": "uint256"
        }
      ],
      "name": "balanceOf",
      "outputs": [
        {
          "internalType": "uint256",
          "name": "",
          "type": "uint256"
        }
      ],
      "stateMutability": "view",
      "type": "function"
    },
    {
      "inputs": [
        {
          "internalType": "address[]",
          "name": "accounts",
          "type": "address[]"
        },
        {
          "internalType": "uint256[]",
          "name": "ids",
          "type": "uint256[]"
        }
      ],
      "name": "balanceOfBatch",
      "outputs": [
        {
          "internalType": "uint256[]",
          "name": "",
          "type": "uint256[]"
        }
      ],
      "stateMutability": "view",
      "type": "function"
    },
    {
      "inputs": [
        {
          "internalType": "address",
          "name": "account",
          "type": "address"
        },
        {
          "internalType": "address",
          "name": "operator",
          "type": "address"
        }
      ],
      "name": "isApprovedForAll",
      "outputs": [
        {
          "internalType": "bool",
          "name": "",
          "type": "bool"
        }
      ],
      "stateMutability": "view",
      "type": "function"
    },
    {
      "inputs": [
        {
          "internalType": "uint256",
          "name": "tokenId",
          "type": "uint256"
        },
        {
          "internalType": "uint256",
          "name": "amount",
          "type": "uint256"
        }
      ],
      "name": "mint",
      "outputs": [],
      "stateMutability": "nonpayable",
      "type": "function"
    },
    {
      "inputs": [
        {
          "internalType": "uint256",
          "name": "tokenId",
          "type": "uint256"
        },
        {
          "internalType": "uint256",
          "name": "amount",
          "type": "uint256"
        },
        {
          "internalType": "address",
          "name": "owner",
          "type": "address"
        }
      ],
      "name": "mint",
      "outputs": [],
      "stateMutability": "nonpayable",
      "type": "function"
    },
    {
      "inputs": [
        {
          "internalType": "address",
          "name": "from",
          "type": "address"
        },
        {
          "internalType": "address",
          "name": "to",
          "type": "address"
        },
        {
          "internalType": "uint256[]",
          "name": "ids",
          "type": "uint256[]"
        },
        {
          "internalType": "uint256[]",
          "name": "amounts",
          "type": "uint256[]"
        },
        {
          "internalType": "bytes",
          "name": "data",
          "type": "bytes"
        }
      ],
      "name": "safeBatchTransferFrom",
      "outputs": [],
      "stateMutability": "nonpayable",
      "type": "function"
    },
    {
      "inputs": [
        {
          "internalType": "address",
          "name": "from",
          "type": "address"
        },
        {
          "internalType": "address",
          "name": "to",
          "type": "address"
        },
        {
          "internalType": "uint256",
          "name": "id",
          "type": "uint256"
        },
        {
          "internalType": "uint256",
          "name": "amount",
          "type": "uint256"
        },
        {
          "internalType": "bytes",
          "name": "data",
          "type": "bytes"
        }
      ],
      "name": "safeTransferFrom",
      "outputs": [],
      "stateMutability": "nonpayable",
      "type": "function"
    },
    {
      "inputs": [
        {
          "internalType": "address",
          "name": "operator",
          "type": "address"
        },
        {
          "internalType": "bool",
          "name": "approved",
          "type": "bool"
        }
      ],
      "name": "setApprovalForAll",
      "outputs": [],
      "stateMutability": "nonpayable",
      "type": "function"
    },
    {
      "inputs": [
        {
          "internalType": "bytes4",
          "name": "interfaceId",
          "type": "bytes4"
        }
      ],
      "name": "supportsInterface",
      "outputs": [
        {
          "internalType": "bool",
          "name": "",
          "type": "bool"
        }
      ],
      "stateMutability": "view",
      "type": "function"
    },
    {
      "inputs": [
        {
          "internalType": "uint256",
          "name": "tokenId",
          "type": "uint256"
        }
      ],
      "name": "uri",
      "outputs": [
        {
          "internalType": "string",
          "name": "",
          "type": "string"
        }
      ],
      "stateMutability": "view",
      "type": "function"
    }
  ],
  "bytecode": "0x60806040523480156200001157600080fd5b50604051806060016040528060288152602001620019086028913962000037816200003e565b506200013a565b80516200005390600290602084019062000057565b5050565b8280546200006590620000fd565b90600052602060002090601f016020900481019282620000895760008555620000d4565b82601f10620000a457805160ff1916838001178555620000d4565b82800160010185558215620000d4579182015b82811115620000d4578251825591602001919060010190620000b7565b50620000e2929150620000e6565b5090565b5b80821115620000e25760008155600101620000e7565b600181811c908216806200011257607f821691505b602082108114156200013457634e487b7160e01b600052602260045260246000fd5b50919050565b6117be806200014a6000396000f3fe608060405234801561001057600080fd5b506004361061009d5760003560e01c80634e1273f4116100665780634e1273f414610133578063a22cb46514610153578063e7d3fe6b14610166578063e985e9c514610179578063f242432a146101b557600080fd5b8062fdd58e146100a257806301ffc9a7146100c85780630e89341c146100eb5780631b2ef1ca1461010b5780632eb2c2d614610120575b600080fd5b6100b56100b036600461115a565b6101c8565b6040519081526020015b60405180910390f35b6100db6100d636600461124e565b61025f565b60405190151581526020016100bf565b6100fe6100f936600461128d565b6102b1565b6040516100bf9190611473565b61011e6101193660046112a5565b6102ec565b005b61011e61012e366004611017565b61030b565b610146610141366004611183565b6103a2565b6040516100bf9190611432565b61011e610161366004611120565b610504565b61011e6101743660046112c6565b6105db565b6100db610187366004610fe5565b6001600160a01b03918216600090815260016020908152604080832093909416825291909152205460ff1690565b61011e6101c33660046110bd565b6105fb565b60006001600160a01b0383166102395760405162461bcd60e51b815260206004820152602b60248201527f455243313135353a2062616c616e636520717565727920666f7220746865207a60448201526a65726f206164647265737360a81b60648201526084015b60405180910390fd5b506000908152602081815260408083206001600160a01b03949094168352929052205490565b60006001600160e01b03198216636cdb3d1360e11b148061029057506001600160e01b031982166303a24d0760e21b145b806102ab57506301ffc9a760e01b6001600160e01b03198316145b92915050565b60606102bc82610682565b6102c583610716565b6040516020016102d6929190611360565b6040516020818303038152906040529050919050565b61030733838360405180602001604052806000815250610838565b5050565b6001600160a01b03851633148061032757506103278533610187565b61038e5760405162461bcd60e51b815260206004820152603260248201527f455243313135353a207472616e736665722063616c6c6572206973206e6f74206044820152711bdddb995c881b9bdc88185c1c1c9bdd995960721b6064820152608401610230565b61039b8585858585610942565b5050505050565b606081518351146104075760405162461bcd60e51b815260206004820152602960248201527f455243313135353a206163636f756e747320616e6420696473206c656e677468604482015268040dad2e6dac2e8c6d60bb1b6064820152608401610230565b6000835167ffffffffffffffff81111561043157634e487b7160e01b600052604160045260246000fd5b60405190808252806020026020018201604052801561045a578160200160208202803683370190505b50905060005b84518110156104fc576104c185828151811061048c57634e487b7160e01b600052603260045260246000fd5b60200260200101518583815181106104b457634e487b7160e01b600052603260045260246000fd5b60200260200101516101c8565b8282815181106104e157634e487b7160e01b600052603260045260246000fd5b60209081029190910101526104f58161165c565b9050610460565b509392505050565b336001600160a01b038316141561056f5760405162461bcd60e51b815260206004820152602960248201527f455243313135353a2073657474696e6720617070726f76616c20737461747573604482015268103337b91039b2b63360b91b6064820152608401610230565b3360008181526001602090815260408083206001600160a01b03871680855290835292819020805460ff191686151590811790915590519081529192917f17307eab39ab6107e8899845ad3d59bd9653f200f220920489ca2b5937696c31910160405180910390a35050565b6105f681848460405180602001604052806000815250610838565b505050565b6001600160a01b03851633148061061757506106178533610187565b6106755760405162461bcd60e51b815260206004820152602960248201527f455243313135353a2063616c6c6572206973206e6f74206f776e6572206e6f7260448201526808185c1c1c9bdd995960ba1b6064820152608401610230565b61039b8585858585610b3b565b606060028054610691906115f4565b80601f01602080910402602001604051908101604052809291908181526020018280546106bd906115f4565b801561070a5780601f106106df5761010080835404028352916020019161070a565b820191906000526020600020905b8154815290600101906020018083116106ed57829003601f168201915b50505050509050919050565b60608161073a5750506040805180820190915260018152600360fc1b602082015290565b8160005b8115610764578061074e8161165c565b915061075d9050600a83611599565b915061073e565b60008167ffffffffffffffff81111561078d57634e487b7160e01b600052604160045260246000fd5b6040519080825280601f01601f1916602001820160405280156107b7576020820181803683370190505b5090505b8415610830576107cc6001836115ad565b91506107d9600a86611677565b6107e4906030611581565b60f81b81838151811061080757634e487b7160e01b600052603260045260246000fd5b60200101906001600160f81b031916908160001a905350610829600a86611599565b94506107bb565b949350505050565b6001600160a01b0384166108985760405162461bcd60e51b815260206004820152602160248201527f455243313135353a206d696e7420746f20746865207a65726f206164647265736044820152607360f81b6064820152608401610230565b336108b2816000876108a988610c58565b61039b88610c58565b6000848152602081815260408083206001600160a01b0389168452909152812080548592906108e2908490611581565b909155505060408051858152602081018590526001600160a01b0380881692600092918516917fc3d58168c5ae7397731d063d5bbf3d657854427343f4c083240f7aacaa2d0f62910160405180910390a461039b81600087878787610cb1565b81518351146109a45760405162461bcd60e51b815260206004820152602860248201527f455243313135353a2069647320616e6420616d6f756e7473206c656e677468206044820152670dad2e6dac2e8c6d60c31b6064820152608401610230565b6001600160a01b0384166109ca5760405162461bcd60e51b8152600401610230906114ce565b3360005b8451811015610acd5760008582815181106109f957634e487b7160e01b600052603260045260246000fd5b602002602001015190506000858381518110610a2557634e487b7160e01b600052603260045260246000fd5b602090810291909101810151600084815280835260408082206001600160a01b038e168352909352919091205490915081811015610a755760405162461bcd60e51b815260040161023090611513565b6000838152602081815260408083206001600160a01b038e8116855292528083208585039055908b16825281208054849290610ab2908490611581565b9250508190555050505080610ac69061165c565b90506109ce565b50846001600160a01b0316866001600160a01b0316826001600160a01b03167f4a39dc06d4c0dbc64b70af90fd698a233a518aa5d07e595d983b8c0526c8f7fb8787604051610b1d929190611445565b60405180910390a4610b33818787878787610e1c565b505050505050565b6001600160a01b038416610b615760405162461bcd60e51b8152600401610230906114ce565b33610b718187876108a988610c58565b6000848152602081815260408083206001600160a01b038a16845290915290205483811015610bb25760405162461bcd60e51b815260040161023090611513565b6000858152602081815260408083206001600160a01b038b8116855292528083208785039055908816825281208054869290610bef908490611581565b909155505060408051868152602081018690526001600160a01b03808916928a821692918616917fc3d58168c5ae7397731d063d5bbf3d657854427343f4c083240f7aacaa2d0f62910160405180910390a4610c4f828888888888610cb1565b50505050505050565b60408051600180825281830190925260609160009190602080830190803683370190505090508281600081518110610ca057634e487b7160e01b600052603260045260246000fd5b602090810291909101015292915050565b6001600160a01b0384163b15610b335760405163f23a6e6160e01b81526001600160a01b0385169063f23a6e6190610cf590899089908890889088906004016113ed565b602060405180830381600087803b158015610d0f57600080fd5b505af1925050508015610d3f575060408051601f3d908101601f19168201909252610d3c91810190611271565b60015b610dec57610d4b6116cd565b806308c379a01415610d855750610d606116e5565b80610d6b5750610d87565b8060405162461bcd60e51b81526004016102309190611473565b505b60405162461bcd60e51b815260206004820152603460248201527f455243313135353a207472616e7366657220746f206e6f6e20455243313135356044820152732932b1b2b4bb32b91034b6b83632b6b2b73a32b960611b6064820152608401610230565b6001600160e01b0319811663f23a6e6160e01b14610c4f5760405162461bcd60e51b815260040161023090611486565b6001600160a01b0384163b15610b335760405163bc197c8160e01b81526001600160a01b0385169063bc197c8190610e60908990899088908890889060040161138f565b602060405180830381600087803b158015610e7a57600080fd5b505af1925050508015610eaa575060408051601f3d908101601f19168201909252610ea791810190611271565b60015b610eb657610d4b6116cd565b6001600160e01b0319811663bc197c8160e01b14610c4f5760405162461bcd60e51b815260040161023090611486565b80356001600160a01b0381168114610efd57600080fd5b919050565b600082601f830112610f12578081fd5b81356020610f1f8261155d565b604051610f2c828261162f565b8381528281019150858301600585901b87018401881015610f4b578586fd5b855b85811015610f6957813584529284019290840190600101610f4d565b5090979650505050505050565b600082601f830112610f86578081fd5b813567ffffffffffffffff811115610fa057610fa06116b7565b604051610fb7601f8301601f19166020018261162f565b818152846020838601011115610fcb578283fd5b816020850160208301379081016020019190915292915050565b60008060408385031215610ff7578182fd5b61100083610ee6565b915061100e60208401610ee6565b90509250929050565b600080600080600060a0868803121561102e578081fd5b61103786610ee6565b945061104560208701610ee6565b9350604086013567ffffffffffffffff80821115611061578283fd5b61106d89838a01610f02565b94506060880135915080821115611082578283fd5b61108e89838a01610f02565b935060808801359150808211156110a3578283fd5b506110b088828901610f76565b9150509295509295909350565b600080600080600060a086880312156110d4578081fd5b6110dd86610ee6565b94506110eb60208701610ee6565b93506040860135925060608601359150608086013567ffffffffffffffff811115611114578182fd5b6110b088828901610f76565b60008060408385031215611132578182fd5b61113b83610ee6565b91506020830135801515811461114f578182fd5b809150509250929050565b6000806040838503121561116c578182fd5b61117583610ee6565b946020939093013593505050565b60008060408385031215611195578182fd5b823567ffffffffffffffff808211156111ac578384fd5b818501915085601f8301126111bf578384fd5b813560206111cc8261155d565b6040516111d9828261162f565b8381528281019150858301600585901b870184018b10156111f8578889fd5b8896505b848710156112215761120d81610ee6565b8352600196909601959183019183016111fc565b5096505086013592505080821115611237578283fd5b5061124485828601610f02565b9150509250929050565b60006020828403121561125f578081fd5b813561126a8161176f565b9392505050565b600060208284031215611282578081fd5b815161126a8161176f565b60006020828403121561129e578081fd5b5035919050565b600080604083850312156112b7578182fd5b50508035926020909101359150565b6000806000606084860312156112da578081fd5b83359250602084013591506112f160408501610ee6565b90509250925092565b6000815180845260208085019450808401835b838110156113295781518752958201959082019060010161130d565b509495945050505050565b6000815180845261134c8160208601602086016115c4565b601f01601f19169290920160200192915050565b600083516113728184602088016115c4565b8351908301906113868183602088016115c4565b01949350505050565b6001600160a01b0386811682528516602082015260a0604082018190526000906113bb908301866112fa565b82810360608401526113cd81866112fa565b905082810360808401526113e18185611334565b98975050505050505050565b6001600160a01b03868116825285166020820152604081018490526060810183905260a06080820181905260009061142790830184611334565b979650505050505050565b60208152600061126a60208301846112fa565b60408152600061145860408301856112fa565b828103602084015261146a81856112fa565b95945050505050565b60208152600061126a6020830184611334565b60208082526028908201527f455243313135353a204552433131353552656365697665722072656a656374656040820152676420746f6b656e7360c01b606082015260800190565b60208082526025908201527f455243313135353a207472616e7366657220746f20746865207a65726f206164604082015264647265737360d81b606082015260800190565b6020808252602a908201527f455243313135353a20696e73756666696369656e742062616c616e636520666f60408201526939103a3930b739b332b960b11b606082015260800190565b600067ffffffffffffffff821115611577576115776116b7565b5060051b60200190565b600082198211156115945761159461168b565b500190565b6000826115a8576115a86116a1565b500490565b6000828210156115bf576115bf61168b565b500390565b60005b838110156115df5781810151838201526020016115c7565b838111156115ee576000848401525b50505050565b600181811c9082168061160857607f821691505b6020821081141561162957634e487b7160e01b600052602260045260246000fd5b50919050565b601f8201601f1916810167ffffffffffffffff81118282101715611655576116556116b7565b6040525050565b60006000198214156116705761167061168b565b5060010190565b600082611686576116866116a1565b500690565b634e487b7160e01b600052601160045260246000fd5b634e487b7160e01b600052601260045260246000fd5b634e487b7160e01b600052604160045260246000fd5b600060033d11156116e257600481823e5160e01c5b90565b600060443d10156116f35790565b6040516003193d81016004833e81513d67ffffffffffffffff816024840111818411171561172357505050505090565b828501915081518181111561173b5750505050505090565b843d87010160208285010111156117555750505050505090565b6117646020828601018761162f565b509095945050505050565b6001600160e01b03198116811461178557600080fd5b5056fea2646970667358221220186b0c5b42a789b1509cfad683cdd3e18b56f3ae5c02bdb52c2e92a251f857df64736f6c6343000804003368747470733a2f2f6578616d706c652e636f6d2f746f6b656e2f313135352f6d657461646174612f",
  "linkReferences": {},
  "deployedLinkReferences": {}
}