{
  "_format": "hh-sol-artifact-1",
  "contractName": "MintableERC721",
  "sourceName": "contracts/test/Mintable.sol",
  "abi": [
    {
      "inputs": [],
      "stateMutability": "nonpayable",
      "type": "constructor"
    },
    {
      "anonymous": false,
      "inputs": [
        {
          "indexed": true,
          "internalType": "address",
          "name": "owner",
          "type": "address"
        },
        {
          "indexed": true,
          "internalType": "address",
          "name": "approved",
          "type": "address"
        },
        {
          "indexed": true,
          "internalType": "uint256",
          "name": "tokenId",
          "type": "uint256"
        }
      ],
      "name": "Approval",
      "type": "event"
    },
    {
      "anonymous": false,
      "inputs": [
        {
          "indexed": true,
          "internalType": "address",
          "name": "owner",
          "type": "address"
        },
        {
          "indexed": true,
          "internalType": "address",
          "name": "operator",
          "type": "address"
        },
        {
          "indexed": false,
          "internalType": "bool",
          "name": "approved",
          "type": "bool"
        }
      ],
      "name": "ApprovalForAll",
      "type": "event"
    },
    {
      "anonymous": false,
      "inputs": [
        {
          "indexed": true,
          "internalType": "address",
          "name": "from",
          "type": "address"
        },
        {
          "indexed": true,
          "internalType": "address",
          "name": "to",
          "type": "address"
        },
        {
          "indexed": true,
          "internalType": "uint256",
          "name": "tokenId",
          "type": "uint256"
        }
      ],
      "name": "Transfer",
      "type": "event"
    },
    {
      "inputs": [
        {
          "internalType": "address",
          "name": "to",
          "type": "address"
        },
        {
          "internalType": "uint256",
          "name": "tokenId",
          "type": "uint256"
        }
      ],
      "name": "approve",
      "outputs": [],
      "stateMutability": "nonpayable",
      "type": "function"
    },
    {
      "inputs": [
        {
          "internalType": "address",
          "name": "owner",
          "type": "address"
        }
      ],
      "name": "balanceOf",
      "outputs": [
        {
          "internalType": "uint256",
          "name": "",
          "type": "uint256"
        }
      ],
      "stateMutability": "view",
      "type": "function"
    },
    {
      "inputs": [
        {
          "internalType": "uint256",
          "name": "tokenId",
          "type": "uint256"
        }
      ],
      "name": "getApproved",
      "outputs": [
        {
          "internalType": "address",
          "name": "",
          "type": "address"
        }
      ],
      "stateMutability": "view",
      "type": "function"
    },
    {
      "inputs": [
        {
          "internalType": "address",
          "name": "owner",
          "type": "address"
        },
        {
          "internalType": "address",
          "name": "operator",
          "type": "address"
        }
      ],
      "name": "isApprovedForAll",
      "outputs": [
        {
          "internalType": "bool",
          "name": "",
          "type": "bool"
        }
      ],
      "stateMutability": "view",
      "type": "function"
    },
    {
      "inputs": [
        {
          "internalType": "uint256",
          "name": "tokenId",
          "type": "uint256"
        },
        {
          "internalType": "address",
          "name": "owner",
          "type": "address"
        }
      ],
      "name": "mint",
      "outputs": [],
      "stateMutability": "nonpayable",
      "type": "function"
    },
    {
      "inputs": [
        {
          "internalType": "uint256",
          "name": "tokenId",
          "type": "uint256"
        }
      ],
      "name": "mint",
      "outputs": [],
      "stateMutability": "nonpayable",
      "type": "function"
    },
    {
      "inputs": [],
      "name": "name",
      "outputs": [
        {
          "internalType": "string",
          "name": "",
          "type": "string"
        }
      ],
      "stateMutability": "view",
      "type": "function"
    },
    {
      "inputs": [
        {
          "internalType": "uint256",
          "name": "tokenId",
          "type": "uint256"
        }
      ],
      "name": "ownerOf",
      "outputs": [
        {
          "internalType": "address",
          "name": "",
          "type": "address"
        }
      ],
      "stateMutability": "view",
      "type": "function"
    },
    {
      "inputs": [
        {
          "internalType": "address",
          "name": "from",
          "type": "address"
        },
        {
          "internalType": "address",
          "name": "to",
          "type": "address"
        },
        {
          "internalType": "uint256",
          "name": "tokenId",
          "type": "uint256"
        }
      ],
      "name": "safeTransferFrom",
      "outputs": [],
      "stateMutability": "nonpayable",
      "type": "function"
    },
    {
      "inputs": [
        {
          "internalType": "address",
          "name": "from",
          "type": "address"
        },
        {
          "internalType": "address",
          "name": "to",
          "type": "address"
        },
        {
          "internalType": "uint256",
          "name": "tokenId",
          "type": "uint256"
        },
        {
          "internalType": "bytes",
          "name": "_data",
          "type": "bytes"
        }
      ],
      "name": "safeTransferFrom",
      "outputs": [],
      "stateMutability": "nonpayable",
      "type": "function"
    },
    {
      "inputs": [
        {
          "internalType": "address",
          "name": "operator",
          "type": "address"
        },
        {
          "internalType": "bool",
          "name": "approved",
          "type": "bool"
        }
      ],
      "name": "setApprovalForAll",
      "outputs": [],
      "stateMutability": "nonpayable",
      "type": "function"
    },
    {
      "inputs": [
        {
          "internalType": "bytes4",
          "name": "interfaceId",
          "type": "bytes4"
        }
      ],
      "name": "supportsInterface",
      "outputs": [
        {
          "internalType": "bool",
          "name": "",
          "type": "bool"
        }
      ],
      "stateMutability": "view",
      "type": "function"
    },
    {
      "inputs": [],
      "name": "symbol",
      "outputs": [
        {
          "internalType": "string",
          "name": "",
          "type": "string"
        }
      ],
      "stateMutability": "view",
      "type": "function"
    },
    {
      "inputs": [
        {
          "internalType": "uint256",
          "name": "tokenId",
          "type": "uint256"
        }
      ],
      "name": "tokenURI",
      "outputs": [
        {
          "internalType": "string",
          "name": "",
          "type": "string"
        }
      ],
      "stateMutability": "view",
      "type": "function"
    },
    {
      "inputs": [
        {
          "internalType": "address",
          "name": "from",
          "type": "address"
        },
        {
          "internalType": "address",
          "name": "to",
          "type": "address"
        },
        {
          "internalType": "uint256",
          "name": "tokenId",
          "type": "uint256"
        }
      ],
      "name": "transferFrom",
      "outputs": [],
      "stateMutability": "nonpayable",
      "type": "function"
    }
  ],
  "bytecode": "0x60806040523480156200001157600080fd5b506040518060400160405280600381526020017f4e465400000000000000000000000000000000000000000000000000000000008152506040518060400160405280600381526020017f4e46540000000000000000000000000000000000000000000000000000000000815250816000908051906020019062000096929190620000b8565b508060019080519060200190620000af929190620000b8565b505050620001cd565b828054620000c69062000168565b90600052602060002090601f016020900481019282620000ea576000855562000136565b82601f106200010557805160ff191683800117855562000136565b8280016001018555821562000136579182015b828111156200013557825182559160200191906001019062000118565b5b50905062000145919062000149565b5090565b5b80821115620001645760008160009055506001016200014a565b5090565b600060028204905060018216806200018157607f821691505b602082108114156200019857620001976200019e565b5b50919050565b7f4e487b7100000000000000000000000000000000000000000000000000000000600052602260045260246000fd5b61273080620001dd6000396000f3fe608060405234801561001057600080fd5b50600436106100f55760003560e01c806370a0823111610097578063a22cb46511610066578063a22cb46514610282578063b88d4fde1461029e578063c87b56dd146102ba578063e985e9c5146102ea576100f5565b806370a08231146101fc57806394bf804d1461022c57806395d89b4114610248578063a0712d6814610266576100f5565b8063095ea7b3116100d3578063095ea7b31461017857806323b872dd1461019457806342842e0e146101b05780636352211e146101cc576100f5565b806301ffc9a7146100fa57806306fdde031461012a578063081812fc14610148575b600080fd5b610114600480360381019061010f91906118cf565b61031a565b6040516101219190611ccb565b60405180910390f35b6101326103fc565b60405161013f9190611ce6565b60405180910390f35b610162600480360381019061015d9190611921565b61048e565b60405161016f9190611c64565b60405180910390f35b610192600480360381019061018d9190611893565b610513565b005b6101ae60048036038101906101a9919061178d565b61062b565b005b6101ca60048036038101906101c5919061178d565b61068b565b005b6101e660048036038101906101e19190611921565b6106ab565b6040516101f39190611c64565b60405180910390f35b61021660048036038101906102119190611728565b61075d565b6040516102239190611ec8565b60405180910390f35b6102466004803603810190610241919061194a565b610815565b005b610250610823565b60405161025d9190611ce6565b60405180910390f35b610280600480360381019061027b9190611921565b6108b5565b005b61029c60048036038101906102979190611857565b6108c2565b005b6102b860048036038101906102b391906117dc565b610a43565b005b6102d460048036038101906102cf9190611921565b610aa5565b6040516102e19190611ce6565b60405180910390f35b61030460048036038101906102ff9190611751565b610b4c565b6040516103119190611ccb565b60405180910390f35b60007f80ac58cd000000000000000000000000000000000000000000000000000000007bffffffffffffffffffffffffffffffffffffffffffffffffffffffff1916827bffffffffffffffffffffffffffffffffffffffffffffffffffffffff191614806103e557507f5b5e139f000000000000000000000000000000000000000000000000000000007bffffffffffffffffffffffffffffffffffffffffffffffffffffffff1916827bffffffffffffffffffffffffffffffffffffffffffffffffffffffff1916145b806103f557506103f482610be0565b5b9050919050565b60606000805461040b906120ed565b80601f0160208091040260200160405190810160405280929190818152602001828054610437906120ed565b80156104845780601f1061045957610100808354040283529160200191610484565b820191906000526020600020905b81548152906001019060200180831161046757829003601f168201915b5050505050905090565b600061049982610c4a565b6104d8576040517f08c379a00000000000000000000000000000000000000000000000000000000081526004016104cf90611e28565b60405180910390fd5b6004600083815260200190815260200160002060009054906101000a900473ffffffffffffffffffffffffffffffffffffffff169050919050565b600061051e826106ab565b90508073ffffffffffffffffffffffffffffffffffffffff168373ffffffffffffffffffffffffffffffffffffffff16141561058f576040517f08c379a000000000000000000000000000000000000000000000000000000000815260040161058690611e88565b60405180910390fd5b8073ffffffffffffffffffffffffffffffffffffffff166105ae610cb6565b73ffffffffffffffffffffffffffffffffffffffff1614806105dd57506105dc816105d7610cb6565b610b4c565b5b61061c576040517f08c379a000000000000000000000000000000000000000000000000000000000815260040161061390611da8565b60405180910390fd5b6106268383610cbe565b505050565b61063c610636610cb6565b82610d77565b61067b576040517f08c379a000000000000000000000000000000000000000000000000000000000815260040161067290611ea8565b60405180910390fd5b610686838383610e55565b505050565b6106a683838360405180602001604052806000815250610a43565b505050565b6000806002600084815260200190815260200160002060009054906101000a900473ffffffffffffffffffffffffffffffffffffffff169050600073ffffffffffffffffffffffffffffffffffffffff168173ffffffffffffffffffffffffffffffffffffffff161415610754576040517f08c379a000000000000000000000000000000000000000000000000000000000815260040161074b90611de8565b60405180910390fd5b80915050919050565b60008073ffffffffffffffffffffffffffffffffffffffff168273ffffffffffffffffffffffffffffffffffffffff1614156107ce576040517f08c379a00000000000000000000000000000000000000000000000000000000081526004016107c590611dc8565b60405180910390fd5b600360008373ffffffffffffffffffffffffffffffffffffffff1673ffffffffffffffffffffffffffffffffffffffff168152602001908152602001600020549050919050565b61081f81836110b1565b5050565b606060018054610832906120ed565b80601f016020809104026020016040519081016040528092919081815260200182805461085e906120ed565b80156108ab5780601f10610880576101008083540402835291602001916108ab565b820191906000526020600020905b81548152906001019060200180831161088e57829003601f168201915b5050505050905090565b6108bf33826110b1565b50565b6108ca610cb6565b73ffffffffffffffffffffffffffffffffffffffff168273ffffffffffffffffffffffffffffffffffffffff161415610938576040517f08c379a000000000000000000000000000000000000000000000000000000000815260040161092f90611d68565b60405180910390fd5b8060056000610945610cb6565b73ffffffffffffffffffffffffffffffffffffffff1673ffffffffffffffffffffffffffffffffffffffff16815260200190815260200160002060008473ffffffffffffffffffffffffffffffffffffffff1673ffffffffffffffffffffffffffffffffffffffff16815260200190815260200160002060006101000a81548160ff0219169083151502179055508173ffffffffffffffffffffffffffffffffffffffff166109f2610cb6565b73ffffffffffffffffffffffffffffffffffffffff167f17307eab39ab6107e8899845ad3d59bd9653f200f220920489ca2b5937696c3183604051610a379190611ccb565b60405180910390a35050565b610a54610a4e610cb6565b83610d77565b610a93576040517f08c379a0000000000000000000000000000000000000000000000000000000008152600401610a8a90611ea8565b60405180910390fd5b610a9f8484848461127f565b50505050565b6060610ab082610c4a565b610aef576040517f08c379a0000000000000000000000000000000000000000000000000000000008152600401610ae690611e68565b60405180910390fd5b6000610af96112db565b90506000815111610b195760405180602001604052806000815250610b44565b80610b23846112fb565b604051602001610b34929190611c40565b6040516020818303038152906040525b915050919050565b6000600560008473ffffffffffffffffffffffffffffffffffffffff1673ffffffffffffffffffffffffffffffffffffffff16815260200190815260200160002060008373ffffffffffffffffffffffffffffffffffffffff1673ffffffffffffffffffffffffffffffffffffffff16815260200190815260200160002060009054906101000a900460ff16905092915050565b60007f01ffc9a7000000000000000000000000000000000000000000000000000000007bffffffffffffffffffffffffffffffffffffffffffffffffffffffff1916827bffffffffffffffffffffffffffffffffffffffffffffffffffffffff1916149050919050565b60008073ffffffffffffffffffffffffffffffffffffffff166002600084815260200190815260200160002060009054906101000a900473ffffffffffffffffffffffffffffffffffffffff1673ffffffffffffffffffffffffffffffffffffffff1614159050919050565b600033905090565b816004600083815260200190815260200160002060006101000a81548173ffffffffffffffffffffffffffffffffffffffff021916908373ffffffffffffffffffffffffffffffffffffffff160217905550808273ffffffffffffffffffffffffffffffffffffffff16610d31836106ab565b73ffffffffffffffffffffffffffffffffffffffff167f8c5be1e5ebec7d5bd14f71427d1e84f3dd0314c0f7b2291e5b200ac8c7c3b92560405160405180910390a45050565b6000610d8282610c4a565b610dc1576040517f08c379a0000000000000000000000000000000000000000000000000000000008152600401610db890611d88565b60405180910390fd5b6000610dcc836106ab565b90508073ffffffffffffffffffffffffffffffffffffffff168473ffffffffffffffffffffffffffffffffffffffff161480610e3b57508373ffffffffffffffffffffffffffffffffffffffff16610e238461048e565b73ffffffffffffffffffffffffffffffffffffffff16145b80610e4c5750610e4b8185610b4c565b5b91505092915050565b8273ffffffffffffffffffffffffffffffffffffffff16610e75826106ab565b73ffffffffffffffffffffffffffffffffffffffff1614610ecb576040517f08c379a0000000000000000000000000000000000000000000000000000000008152600401610ec290611e48565b60405180910390fd5b600073ffffffffffffffffffffffffffffffffffffffff168273ffffffffffffffffffffffffffffffffffffffff161415610f3b576040517f08c379a0000000000000000000000000000000000000000000000000000000008152600401610f3290611d48565b60405180910390fd5b610f468383836114a8565b610f51600082610cbe565b6001600360008573ffffffffffffffffffffffffffffffffffffffff1673ffffffffffffffffffffffffffffffffffffffff1681526020019081526020016000206000828254610fa19190612003565b925050819055506001600360008473ffffffffffffffffffffffffffffffffffffffff1673ffffffffffffffffffffffffffffffffffffffff1681526020019081526020016000206000828254610ff89190611f7c565b92505081905550816002600083815260200190815260200160002060006101000a81548173ffffffffffffffffffffffffffffffffffffffff021916908373ffffffffffffffffffffffffffffffffffffffff160217905550808273ffffffffffffffffffffffffffffffffffffffff168473ffffffffffffffffffffffffffffffffffffffff167fddf252ad1be2c89b69c2b068fc378daa952ba7f163c4a11628f55a4df523b3ef60405160405180910390a4505050565b600073ffffffffffffffffffffffffffffffffffffffff168273ffffffffffffffffffffffffffffffffffffffff161415611121576040517f08c379a000000000000000000000000000000000000000000000000000000000815260040161111890611e08565b60405180910390fd5b61112a81610c4a565b1561116a576040517f08c379a000000000000000000000000000000000000000000000000000000000815260040161116190611d28565b60405180910390fd5b611176600083836114a8565b6001600360008473ffffffffffffffffffffffffffffffffffffffff1673ffffffffffffffffffffffffffffffffffffffff16815260200190815260200160002060008282546111c69190611f7c565b92505081905550816002600083815260200190815260200160002060006101000a81548173ffffffffffffffffffffffffffffffffffffffff021916908373ffffffffffffffffffffffffffffffffffffffff160217905550808273ffffffffffffffffffffffffffffffffffffffff16600073ffffffffffffffffffffffffffffffffffffffff167fddf252ad1be2c89b69c2b068fc378daa952ba7f163c4a11628f55a4df523b3ef60405160405180910390a45050565b61128a848484610e55565b611296848484846114ad565b6112d5576040517f08c379a00000000000000000000000000000000000000000000000000000000081526004016112cc90611d08565b60405180910390fd5b50505050565b60606040518060600160405280602781526020016126d460279139905090565b60606000821415611343576040518060400160405280600181526020017f300000000000000000000000000000000000000000000000000000000000000081525090506114a3565b600082905060005b6000821461137557808061135e90612150565b915050600a8261136e9190611fd2565b915061134b565b60008167ffffffffffffffff8111156113b7577f4e487b7100000000000000000000000000000000000000000000000000000000600052604160045260246000fd5b6040519080825280601f01601f1916602001820160405280156113e95781602001600182028036833780820191505090505b5090505b6000851461149c576001826114029190612003565b9150600a856114119190612199565b603061141d9190611f7c565b60f81b818381518110611459577f4e487b7100000000000000000000000000000000000000000000000000000000600052603260045260246000fd5b60200101907effffffffffffffffffffffffffffffffffffffffffffffffffffffffffffff1916908160001a905350600a856114959190611fd2565b94506113ed565b8093505050505b919050565b505050565b60006114ce8473ffffffffffffffffffffffffffffffffffffffff16611644565b15611637578373ffffffffffffffffffffffffffffffffffffffff1663150b7a026114f7610cb6565b8786866040518563ffffffff1660e01b81526004016115199493929190611c7f565b602060405180830381600087803b15801561153357600080fd5b505af192505050801561156457506040513d601f19601f8201168201806040525081019061156191906118f8565b60015b6115e7573d8060008114611594576040519150601f19603f3d011682016040523d82523d6000602084013e611599565b606091505b506000815114156115df576040517f08c379a00000000000000000000000000000000000000000000000000000000081526004016115d690611d08565b60405180910390fd5b805181602001fd5b63150b7a0260e01b7bffffffffffffffffffffffffffffffffffffffffffffffffffffffff1916817bffffffffffffffffffffffffffffffffffffffffffffffffffffffff19161491505061163c565b600190505b949350505050565b600080823b905060008111915050919050565b600061166a61166584611f08565b611ee3565b90508281526020810184848401111561168257600080fd5b61168d8482856120ab565b509392505050565b6000813590506116a481612677565b92915050565b6000813590506116b98161268e565b92915050565b6000813590506116ce816126a5565b92915050565b6000815190506116e3816126a5565b92915050565b600082601f8301126116fa57600080fd5b813561170a848260208601611657565b91505092915050565b600081359050611722816126bc565b92915050565b60006020828403121561173a57600080fd5b600061174884828501611695565b91505092915050565b6000806040838503121561176457600080fd5b600061177285828601611695565b925050602061178385828601611695565b9150509250929050565b6000806000606084860312156117a257600080fd5b60006117b086828701611695565b93505060206117c186828701611695565b92505060406117d286828701611713565b9150509250925092565b600080600080608085870312156117f257600080fd5b600061180087828801611695565b945050602061181187828801611695565b935050604061182287828801611713565b925050606085013567ffffffffffffffff81111561183f57600080fd5b61184b878288016116e9565b91505092959194509250565b6000806040838503121561186a57600080fd5b600061187885828601611695565b9250506020611889858286016116aa565b9150509250929050565b600080604083850312156118a657600080fd5b60006118b485828601611695565b92505060206118c585828601611713565b9150509250929050565b6000602082840312156118e157600080fd5b60006118ef848285016116bf565b91505092915050565b60006020828403121561190a57600080fd5b6000611918848285016116d4565b91505092915050565b60006020828403121561193357600080fd5b600061194184828501611713565b91505092915050565b6000806040838503121561195d57600080fd5b600061196b85828601611713565b925050602061197c85828601611695565b9150509250929050565b61198f81612037565b82525050565b61199e81612049565b82525050565b60006119af82611f39565b6119b98185611f4f565b93506119c98185602086016120ba565b6119d281612286565b840191505092915050565b60006119e882611f44565b6119f28185611f60565b9350611a028185602086016120ba565b611a0b81612286565b840191505092915050565b6000611a2182611f44565b611a2b8185611f71565b9350611a3b8185602086016120ba565b80840191505092915050565b6000611a54603283611f60565b9150611a5f82612297565b604082019050919050565b6000611a77601c83611f60565b9150611a82826122e6565b602082019050919050565b6000611a9a602483611f60565b9150611aa58261230f565b604082019050919050565b6000611abd601983611f60565b9150611ac88261235e565b602082019050919050565b6000611ae0602c83611f60565b9150611aeb82612387565b604082019050919050565b6000611b03603883611f60565b9150611b0e826123d6565b604082019050919050565b6000611b26602a83611f60565b9150611b3182612425565b604082019050919050565b6000611b49602983611f60565b9150611b5482612474565b604082019050919050565b6000611b6c602083611f60565b9150611b77826124c3565b602082019050919050565b6000611b8f602c83611f60565b9150611b9a826124ec565b604082019050919050565b6000611bb2602983611f60565b9150611bbd8261253b565b604082019050919050565b6000611bd5602f83611f60565b9150611be08261258a565b604082019050919050565b6000611bf8602183611f60565b9150611c03826125d9565b604082019050919050565b6000611c1b603183611f60565b9150611c2682612628565b604082019050919050565b611c3a816120a1565b82525050565b6000611c4c8285611a16565b9150611c588284611a16565b91508190509392505050565b6000602082019050611c796000830184611986565b92915050565b6000608082019050611c946000830187611986565b611ca16020830186611986565b611cae6040830185611c31565b8181036060830152611cc081846119a4565b905095945050505050565b6000602082019050611ce06000830184611995565b92915050565b60006020820190508181036000830152611d0081846119dd565b905092915050565b60006020820190508181036000830152611d2181611a47565b9050919050565b60006020820190508181036000830152611d4181611a6a565b9050919050565b60006020820190508181036000830152611d6181611a8d565b9050919050565b60006020820190508181036000830152611d8181611ab0565b9050919050565b60006020820190508181036000830152611da181611ad3565b9050919050565b60006020820190508181036000830152611dc181611af6565b9050919050565b60006020820190508181036000830152611de181611b19565b9050919050565b60006020820190508181036000830152611e0181611b3c565b9050919050565b60006020820190508181036000830152611e2181611b5f565b9050919050565b60006020820190508181036000830152611e4181611b82565b9050919050565b60006020820190508181036000830152611e6181611ba5565b9050919050565b60006020820190508181036000830152611e8181611bc8565b9050919050565b60006020820190508181036000830152611ea181611beb565b9050919050565b60006020820190508181036000830152611ec181611c0e565b9050919050565b6000602082019050611edd6000830184611c31565b92915050565b6000611eed611efe565b9050611ef9828261211f565b919050565b6000604051905090565b600067ffffffffffffffff821115611f2357611f22612257565b5b611f2c82612286565b9050602081019050919050565b600081519050919050565b600081519050919050565b600082825260208201905092915050565b600082825260208201905092915050565b600081905092915050565b6000611f87826120a1565b9150611f92836120a1565b9250827fffffffffffffffffffffffffffffffffffffffffffffffffffffffffffffffff03821115611fc757611fc66121ca565b5b828201905092915050565b6000611fdd826120a1565b9150611fe8836120a1565b925082611ff857611ff76121f9565b5b828204905092915050565b600061200e826120a1565b9150612019836120a1565b92508282101561202c5761202b6121ca565b5b828203905092915050565b600061204282612081565b9050919050565b60008115159050919050565b60007fffffffff0000000000000000000000000000000000000000000000000000000082169050919050565b600073ffffffffffffffffffffffffffffffffffffffff82169050919050565b6000819050919050565b82818337600083830152505050565b60005b838110156120d85780820151818401526020810190506120bd565b838111156120e7576000848401525b50505050565b6000600282049050600182168061210557607f821691505b6020821081141561211957612118612228565b5b50919050565b61212882612286565b810181811067ffffffffffffffff8211171561214757612146612257565b5b80604052505050565b600061215b826120a1565b91507fffffffffffffffffffffffffffffffffffffffffffffffffffffffffffffffff82141561218e5761218d6121ca565b5b600182019050919050565b60006121a4826120a1565b91506121af836120a1565b9250826121bf576121be6121f9565b5b828206905092915050565b7f4e487b7100000000000000000000000000000000000000000000000000000000600052601160045260246000fd5b7f4e487b7100000000000000000000000000000000000000000000000000000000600052601260045260246000fd5b7f4e487b7100000000000000000000000000000000000000000000000000000000600052602260045260246000fd5b7f4e487b7100000000000000000000000000000000000000000000000000000000600052604160045260246000fd5b6000601f19601f8301169050919050565b7f4552433732313a207472616e7366657220746f206e6f6e20455243373231526560008201527f63656976657220696d706c656d656e7465720000000000000000000000000000602082015250565b7f4552433732313a20746f6b656e20616c7265616479206d696e74656400000000600082015250565b7f4552433732313a207472616e7366657220746f20746865207a65726f2061646460008201527f7265737300000000000000000000000000000000000000000000000000000000602082015250565b7f4552433732313a20617070726f766520746f2063616c6c657200000000000000600082015250565b7f4552433732313a206f70657261746f7220717565727920666f72206e6f6e657860008201527f697374656e7420746f6b656e0000000000000000000000000000000000000000602082015250565b7f4552433732313a20617070726f76652063616c6c6572206973206e6f74206f7760008201527f6e6572206e6f7220617070726f76656420666f7220616c6c0000000000000000602082015250565b7f4552433732313a2062616c616e636520717565727920666f7220746865207a6560008201527f726f206164647265737300000000000000000000000000000000000000000000602082015250565b7f4552433732313a206f776e657220717565727920666f72206e6f6e657869737460008201527f656e7420746f6b656e0000000000000000000000000000000000000000000000602082015250565b7f4552433732313a206d696e7420746f20746865207a65726f2061646472657373600082015250565b7f4552433732313a20617070726f76656420717565727920666f72206e6f6e657860008201527f697374656e7420746f6b656e0000000000000000000000000000000000000000602082015250565b7f4552433732313a207472616e73666572206f6620746f6b656e2074686174206960008201527f73206e6f74206f776e0000000000000000000000000000000000000000000000602082015250565b7f4552433732314d657461646174613a2055524920717565727920666f72206e6f60008201527f6e6578697374656e7420746f6b656e0000000000000000000000000000000000602082015250565b7f4552433732313a20617070726f76616c20746f2063757272656e74206f776e6560008201527f7200000000000000000000000000000000000000000000000000000000000000602082015250565b7f4552433732313a207472616e736665722063616c6c6572206973206e6f74206f60008201527f776e6572206e6f7220617070726f766564000000000000000000000000000000602082015250565b61268081612037565b811461268b57600080fd5b50565b61269781612049565b81146126a257600080fd5b50565b6126ae81612055565b81146126b957600080fd5b50565b6126c5816120a1565b81146126d057600080fd5b5056fe68747470733a2f2f6578616d706c652e636f6d2f746f6b656e2f3732312f6d657461646174612fa264697066735822122045780a1f9aae9daec6e9a07ce4f570e09e800c39be8db09b1362b6ff6aa2720e64736f6c63430008040033",
  "linkReferences": {},
  "deployedLinkReferences": {}
}