{
  "_format": "hh-sol-artifact-1",
  "contractName": "MintableERC1155",
  "sourceName": "contracts/test/Mintable.sol",
  "abi": [
    {
      "inputs": [],
      "stateMutability": "nonpayable",
      "type": "constructor"
    },
    {
      "anonymous": false,
      "inputs": [
        {
          "indexed": true,
          "internalType": "address",
          "name": "account",
          "type": "address"
        },
        {
          "indexed": true,
          "internalType": "address",
          "name": "operator",
          "type": "address"
        },
        {
          "indexed": false,
          "internalType": "bool",
          "name": "approved",
          "type": "bool"
        }
      ],
      "name": "ApprovalForAll",
      "type": "event"
    },
    {
      "anonymous": false,
      "inputs": [
        {
          "indexed": true,
          "internalType": "address",
          "name": "operator",
          "type": "address"
        },
        {
          "indexed": true,
          "internalType": "address",
          "name": "from",
          "type": "address"
        },
        {
          "indexed": true,
          "internalType": "address",
          "name": "to",
          "type": "address"
        },
        {
          "indexed": false,
          "internalType": "uint256[]",
          "name": "ids",
          "type": "uint256[]"
        },
        {
          "indexed": false,
          "internalType": "uint256[]",
          "name": "values",
          "type": "uint256[]"
        }
      ],
      "name": "TransferBatch",
      "type": "event"
    },
    {
      "anonymous": false,
      "inputs": [
        {
          "indexed": true,
          "internalType": "address",
          "name": "operator",
          "type": "address"
        },
        {
          "indexed": true,
          "internalType": "address",
          "name": "from",
          "type": "address"
        },
        {
          "indexed": true,
          "internalType": "address",
          "name": "to",
          "type": "address"
        },
        {
          "indexed": false,
          "internalType": "uint256",
          "name": "id",
          "type": "uint256"
        },
        {
          "indexed": false,
          "internalType": "uint256",
          "name": "value",
          "type": "uint256"
        }
      ],
      "name": "TransferSingle",
      "type": "event"
    },
    {
      "anonymous": false,
      "inputs": [
        {
          "indexed": false,
          "internalType": "string",
          "name": "value",
          "type": "string"
        },
        {
          "indexed": true,
          "internalType": "uint256",
          "name": "id",
          "type": "uint256"
        }
      ],
      "name": "URI",
      "type": "event"
    },
    {
      "inputs": [
        {
          "internalType": "address",
          "name": "account",
          "type": "address"
        },
        {
          "internalType": "uint256",
          "name": "id",
          "type": "uint256"
        }
      ],
      "name": "balanceOf",
      "outputs": [
        {
          "internalType": "uint256",
          "name": "",
          "type": "uint256"
        }
      ],
      "stateMutability": "view",
      "type": "function"
    },
    {
      "inputs": [
        {
          "internalType": "address[]",
          "name": "accounts",
          "type": "address[]"
        },
        {
          "internalType": "uint256[]",
          "name": "ids",
          "type": "uint256[]"
        }
      ],
      "name": "balanceOfBatch",
      "outputs": [
        {
          "internalType": "uint256[]",
          "name": "",
          "type": "uint256[]"
        }
      ],
      "stateMutability": "view",
      "type": "function"
    },
    {
      "inputs": [
        {
          "internalType": "address",
          "name": "account",
          "type": "address"
        },
        {
          "internalType": "address",
          "name": "operator",
          "type": "address"
        }
      ],
      "name": "isApprovedForAll",
      "outputs": [
        {
          "internalType": "bool",
          "name": "",
          "type": "bool"
        }
      ],
      "stateMutability": "view",
      "type": "function"
    },
    {
      "inputs": [
        {
          "internalType": "uint256",
          "name": "tokenId",
          "type": "uint256"
        },
        {
          "internalType": "uint256",
          "name": "amount",
          "type": "uint256"
        }
      ],
      "name": "mint",
      "outputs": [],
      "stateMutability": "nonpayable",
      "type": "function"
    },
    {
      "inputs": [
        {
          "internalType": "uint256",
          "name": "tokenId",
          "type": "uint256"
        },
        {
          "internalType": "uint256",
          "name": "amount",
          "type": "uint256"
        },
        {
          "internalType": "address",
          "name": "owner",
          "type": "address"
        }
      ],
      "name": "mint",
      "outputs": [],
      "stateMutability": "nonpayable",
      "type": "function"
    },
    {
      "inputs": [
        {
          "internalType": "address",
          "name": "from",
          "type": "address"
        },
        {
          "internalType": "address",
          "name": "to",
          "type": "address"
        },
        {
          "internalType": "uint256[]",
          "name": "ids",
          "type": "uint256[]"
        },
        {
          "internalType": "uint256[]",
          "name": "amounts",
          "type": "uint256[]"
        },
        {
          "internalType": "bytes",
          "name": "data",
          "type": "bytes"
        }
      ],
      "name": "safeBatchTransferFrom",
      "outputs": [],
      "stateMutability": "nonpayable",
      "type": "function"
    },
    {
      "inputs": [
        {
          "internalType": "address",
          "name": "from",
          "type": "address"
        },
        {
          "internalType": "address",
          "name": "to",
          "type": "address"
        },
        {
          "internalType": "uint256",
          "name": "id",
          "type": "uint256"
        },
        {
          "internalType": "uint256",
          "name": "amount",
          "type": "uint256"
        },
        {
          "internalType": "bytes",
          "name": "data",
          "type": "bytes"
        }
      ],
      "name": "safeTransferFrom",
      "outputs": [],
      "stateMutability": "nonpayable",
      "type": "function"
    },
    {
      "inputs": [
        {
          "internalType": "address",
          "name": "operator",
          "type": "address"
        },
        {
          "internalType": "bool",
          "name": "approved",
          "type": "bool"
        }
      ],
      "name": "setApprovalForAll",
      "outputs": [],
      "stateMutability": "nonpayable",
      "type": "function"
    },
    {
      "inputs": [
        {
          "internalType": "bytes4",
          "name": "interfaceId",
          "type": "bytes4"
        }
      ],
      "name": "supportsInterface",
      "outputs": [
        {
          "internalType": "bool",
          "name": "",
          "type": "bool"
        }
      ],
      "stateMutability": "view",
      "type": "function"
    },
    {
      "inputs": [
        {
          "internalType": "uint256",
          "name": "tokenId",
          "type": "uint256"
        }
      ],
      "name": "uri",
      "outputs": [
        {
          "internalType": "string",
          "name": "",
          "type": "string"
        }
      ],
      "stateMutability": "view",
      "type": "function"
    }
  ],
  "bytecode": "0x60806040523480156200001157600080fd5b5060405180606001604052806028815260200162002e12602891396200003d816200004460201b60201c565b5062000175565b80600290805190602001906200005c92919062000060565b5050565b8280546200006e9062000110565b90600052602060002090601f016020900481019282620000925760008555620000de565b82601f10620000ad57805160ff1916838001178555620000de565b82800160010185558215620000de579182015b82811115620000dd578251825591602001919060010190620000c0565b5b509050620000ed9190620000f1565b5090565b5b808211156200010c576000816000905550600101620000f2565b5090565b600060028204905060018216806200012957607f821691505b6020821081141562000140576200013f62000146565b5b50919050565b7f4e487b7100000000000000000000000000000000000000000000000000000000600052602260045260246000fd5b612c8d80620001856000396000f3fe608060405234801561001057600080fd5b506004361061009d5760003560e01c80634e1273f4116100665780634e1273f41461016a578063a22cb4651461019a578063e7d3fe6b146101b6578063e985e9c5146101d2578063f242432a146102025761009d565b8062fdd58e146100a257806301ffc9a7146100d25780630e89341c146101025780631b2ef1ca146101325780632eb2c2d61461014e575b600080fd5b6100bc60048036038101906100b79190611be8565b61021e565b6040516100c99190612348565b60405180910390f35b6100ec60048036038101906100e79190611c90565b6102e7565b6040516100f991906121ab565b60405180910390f35b61011c60048036038101906101179190611ce2565b6103c9565b60405161012991906121c6565b60405180910390f35b61014c60048036038101906101479190611d0b565b610404565b005b61016860048036038101906101639190611a5e565b610423565b005b610184600480360381019061017f9190611c24565b6104c4565b6040516101919190612152565b60405180910390f35b6101b460048036038101906101af9190611bac565b610675565b005b6101d060048036038101906101cb9190611d47565b6107f6565b005b6101ec60048036038101906101e79190611a22565b610816565b6040516101f991906121ab565b60405180910390f35b61021c60048036038101906102179190611b1d565b6108aa565b005b60008073ffffffffffffffffffffffffffffffffffffffff168373ffffffffffffffffffffffffffffffffffffffff16141561028f576040517f08c379a000000000000000000000000000000000000000000000000000000000815260040161028690612228565b60405180910390fd5b60008083815260200190815260200160002060008473ffffffffffffffffffffffffffffffffffffffff1673ffffffffffffffffffffffffffffffffffffffff16815260200190815260200160002054905092915050565b60007fd9b67a26000000000000000000000000000000000000000000000000000000007bffffffffffffffffffffffffffffffffffffffffffffffffffffffff1916827bffffffffffffffffffffffffffffffffffffffffffffffffffffffff191614806103b257507f0e89341c000000000000000000000000000000000000000000000000000000007bffffffffffffffffffffffffffffffffffffffffffffffffffffffff1916827bffffffffffffffffffffffffffffffffffffffffffffffffffffffff1916145b806103c257506103c18261094b565b5b9050919050565b60606103d4826109b5565b6103dd83610a49565b6040516020016103ee92919061206c565b6040516020818303038152906040529050919050565b61041f33838360405180602001604052806000815250610bf6565b5050565b61042b610d8c565b73ffffffffffffffffffffffffffffffffffffffff168573ffffffffffffffffffffffffffffffffffffffff16148061047157506104708561046b610d8c565b610816565b5b6104b0576040517f08c379a00000000000000000000000000000000000000000000000000000000081526004016104a790612288565b60405180910390fd5b6104bd8585858585610d94565b5050505050565b6060815183511461050a576040517f08c379a0000000000000000000000000000000000000000000000000000000008152600401610501906122e8565b60405180910390fd5b6000835167ffffffffffffffff81111561054d577f4e487b7100000000000000000000000000000000000000000000000000000000600052604160045260246000fd5b60405190808252806020026020018201604052801561057b5781602001602082028036833780820191505090505b50905060005b845181101561066a576106148582815181106105c6577f4e487b7100000000000000000000000000000000000000000000000000000000600052603260045260246000fd5b6020026020010151858381518110610607577f4e487b7100000000000000000000000000000000000000000000000000000000600052603260045260246000fd5b602002602001015161021e565b82828151811061064d577f4e487b7100000000000000000000000000000000000000000000000000000000600052603260045260246000fd5b602002602001018181525050806106639061268a565b9050610581565b508091505092915050565b8173ffffffffffffffffffffffffffffffffffffffff16610694610d8c565b73ffffffffffffffffffffffffffffffffffffffff1614156106eb576040517f08c379a00000000000000000000000000000000000000000000000000000000081526004016106e2906122c8565b60405180910390fd5b80600160006106f8610d8c565b73ffffffffffffffffffffffffffffffffffffffff1673ffffffffffffffffffffffffffffffffffffffff16815260200190815260200160002060008473ffffffffffffffffffffffffffffffffffffffff1673ffffffffffffffffffffffffffffffffffffffff16815260200190815260200160002060006101000a81548160ff0219169083151502179055508173ffffffffffffffffffffffffffffffffffffffff166107a5610d8c565b73ffffffffffffffffffffffffffffffffffffffff167f17307eab39ab6107e8899845ad3d59bd9653f200f220920489ca2b5937696c31836040516107ea91906121ab565b60405180910390a35050565b61081181848460405180602001604052806000815250610bf6565b505050565b6000600160008473ffffffffffffffffffffffffffffffffffffffff1673ffffffffffffffffffffffffffffffffffffffff16815260200190815260200160002060008373ffffffffffffffffffffffffffffffffffffffff1673ffffffffffffffffffffffffffffffffffffffff16815260200190815260200160002060009054906101000a900460ff16905092915050565b6108b2610d8c565b73ffffffffffffffffffffffffffffffffffffffff168573ffffffffffffffffffffffffffffffffffffffff1614806108f857506108f7856108f2610d8c565b610816565b5b610937576040517f08c379a000000000000000000000000000000000000000000000000000000000815260040161092e90612248565b60405180910390fd5b61094485858585856110f4565b5050505050565b60007f01ffc9a7000000000000000000000000000000000000000000000000000000007bffffffffffffffffffffffffffffffffffffffffffffffffffffffff1916827bffffffffffffffffffffffffffffffffffffffffffffffffffffffff1916149050919050565b6060600280546109c490612627565b80601f01602080910402602001604051908101604052809291908181526020018280546109f090612627565b8015610a3d5780601f10610a1257610100808354040283529160200191610a3d565b820191906000526020600020905b815481529060010190602001808311610a2057829003601f168201915b50505050509050919050565b60606000821415610a91576040518060400160405280600181526020017f30000000000000000000000000000000000000000000000000000000000000008152509050610bf1565b600082905060005b60008214610ac3578080610aac9061268a565b915050600a82610abc919061250c565b9150610a99565b60008167ffffffffffffffff811115610b05577f4e487b7100000000000000000000000000000000000000000000000000000000600052604160045260246000fd5b6040519080825280601f01601f191660200182016040528015610b375781602001600182028036833780820191505090505b5090505b60008514610bea57600182610b50919061253d565b9150600a85610b5f91906126d3565b6030610b6b91906124b6565b60f81b818381518110610ba7577f4e487b7100000000000000000000000000000000000000000000000000000000600052603260045260246000fd5b60200101907effffffffffffffffffffffffffffffffffffffffffffffffffffffffffffff1916908160001a905350600a85610be3919061250c565b9450610b3b565b8093505050505b919050565b600073ffffffffffffffffffffffffffffffffffffffff168473ffffffffffffffffffffffffffffffffffffffff161415610c66576040517f08c379a0000000000000000000000000000000000000000000000000000000008152600401610c5d90612328565b60405180910390fd5b6000610c70610d8c565b9050610c9181600087610c8288611376565b610c8b88611376565b8761143c565b8260008086815260200190815260200160002060008773ffffffffffffffffffffffffffffffffffffffff1673ffffffffffffffffffffffffffffffffffffffff1681526020019081526020016000206000828254610cf091906124b6565b925050819055508473ffffffffffffffffffffffffffffffffffffffff16600073ffffffffffffffffffffffffffffffffffffffff168273ffffffffffffffffffffffffffffffffffffffff167fc3d58168c5ae7397731d063d5bbf3d657854427343f4c083240f7aacaa2d0f628787604051610d6e929190612363565b60405180910390a4610d8581600087878787611444565b5050505050565b600033905090565b8151835114610dd8576040517f08c379a0000000000000000000000000000000000000000000000000000000008152600401610dcf90612308565b60405180910390fd5b600073ffffffffffffffffffffffffffffffffffffffff168473ffffffffffffffffffffffffffffffffffffffff161415610e48576040517f08c379a0000000000000000000000000000000000000000000000000000000008152600401610e3f90612268565b60405180910390fd5b6000610e52610d8c565b9050610e6281878787878761143c565b60005b845181101561105f576000858281518110610ea9577f4e487b7100000000000000000000000000000000000000000000000000000000600052603260045260246000fd5b602002602001015190506000858381518110610eee577f4e487b7100000000000000000000000000000000000000000000000000000000600052603260045260246000fd5b60200260200101519050600080600084815260200190815260200160002060008b73ffffffffffffffffffffffffffffffffffffffff1673ffffffffffffffffffffffffffffffffffffffff16815260200190815260200160002054905081811015610f8f576040517f08c379a0000000000000000000000000000000000000000000000000000000008152600401610f86906122a8565b60405180910390fd5b81810360008085815260200190815260200160002060008c73ffffffffffffffffffffffffffffffffffffffff1673ffffffffffffffffffffffffffffffffffffffff168152602001908152602001600020819055508160008085815260200190815260200160002060008b73ffffffffffffffffffffffffffffffffffffffff1673ffffffffffffffffffffffffffffffffffffffff168152602001908152602001600020600082825461104491906124b6565b92505081905550505050806110589061268a565b9050610e65565b508473ffffffffffffffffffffffffffffffffffffffff168673ffffffffffffffffffffffffffffffffffffffff168273ffffffffffffffffffffffffffffffffffffffff167f4a39dc06d4c0dbc64b70af90fd698a233a518aa5d07e595d983b8c0526c8f7fb87876040516110d6929190612174565b60405180910390a46110ec81878787878761162b565b505050505050565b600073ffffffffffffffffffffffffffffffffffffffff168473ffffffffffffffffffffffffffffffffffffffff161415611164576040517f08c379a000000000000000000000000000000000000000000000000000000000815260040161115b90612268565b60405180910390fd5b600061116e610d8c565b905061118e81878761117f88611376565b61118888611376565b8761143c565b600080600086815260200190815260200160002060008873ffffffffffffffffffffffffffffffffffffffff1673ffffffffffffffffffffffffffffffffffffffff16815260200190815260200160002054905083811015611225576040517f08c379a000000000000000000000000000000000000000000000000000000000815260040161121c906122a8565b60405180910390fd5b83810360008087815260200190815260200160002060008973ffffffffffffffffffffffffffffffffffffffff1673ffffffffffffffffffffffffffffffffffffffff168152602001908152602001600020819055508360008087815260200190815260200160002060008873ffffffffffffffffffffffffffffffffffffffff1673ffffffffffffffffffffffffffffffffffffffff16815260200190815260200160002060008282546112da91906124b6565b925050819055508573ffffffffffffffffffffffffffffffffffffffff168773ffffffffffffffffffffffffffffffffffffffff168373ffffffffffffffffffffffffffffffffffffffff167fc3d58168c5ae7397731d063d5bbf3d657854427343f4c083240f7aacaa2d0f628888604051611357929190612363565b60405180910390a461136d828888888888611444565b50505050505050565b60606000600167ffffffffffffffff8111156113bb577f4e487b7100000000000000000000000000000000000000000000000000000000600052604160045260246000fd5b6040519080825280602002602001820160405280156113e95781602001602082028036833780820191505090505b5090508281600081518110611427577f4e487b7100000000000000000000000000000000000000000000000000000000600052603260045260246000fd5b60200260200101818152505080915050919050565b505050505050565b6114638473ffffffffffffffffffffffffffffffffffffffff16611812565b15611623578373ffffffffffffffffffffffffffffffffffffffff1663f23a6e6187878686866040518663ffffffff1660e01b81526004016114a99594939291906120f8565b602060405180830381600087803b1580156114c357600080fd5b505af19250505080156114f457506040513d601f19601f820116820180604052508101906114f19190611cb9565b60015b61159a576115006127c0565b806308c379a0141561155d5750611515612b65565b80611520575061155f565b806040517f08c379a000000000000000000000000000000000000000000000000000000000815260040161155491906121c6565b60405180910390fd5b505b6040517f08c379a0000000000000000000000000000000000000000000000000000000008152600401611591906121e8565b60405180910390fd5b63f23a6e6160e01b7bffffffffffffffffffffffffffffffffffffffffffffffffffffffff1916817bffffffffffffffffffffffffffffffffffffffffffffffffffffffff191614611621576040517f08c379a000000000000000000000000000000000000000000000000000000000815260040161161890612208565b60405180910390fd5b505b505050505050565b61164a8473ffffffffffffffffffffffffffffffffffffffff16611812565b1561180a578373ffffffffffffffffffffffffffffffffffffffff1663bc197c8187878686866040518663ffffffff1660e01b8152600401611690959493929190612090565b602060405180830381600087803b1580156116aa57600080fd5b505af19250505080156116db57506040513d601f19601f820116820180604052508101906116d89190611cb9565b60015b611781576116e76127c0565b806308c379a0141561174457506116fc612b65565b806117075750611746565b806040517f08c379a000000000000000000000000000000000000000000000000000000000815260040161173b91906121c6565b60405180910390fd5b505b6040517f08c379a0000000000000000000000000000000000000000000000000000000008152600401611778906121e8565b60405180910390fd5b63bc197c8160e01b7bffffffffffffffffffffffffffffffffffffffffffffffffffffffff1916817bffffffffffffffffffffffffffffffffffffffffffffffffffffffff191614611808576040517f08c379a00000000000000000000000000000000000000000000000000000000081526004016117ff90612208565b60405180910390fd5b505b505050505050565b600080823b905060008111915050919050565b6000611838611833846123b1565b61238c565b9050808382526020820190508285602086028201111561185757600080fd5b60005b85811015611887578161186d888261193b565b84526020840193506020830192505060018101905061185a565b5050509392505050565b60006118a461189f846123dd565b61238c565b905080838252602082019050828560208602820111156118c357600080fd5b60005b858110156118f357816118d98882611a0d565b8452602084019350602083019250506001810190506118c6565b5050509392505050565b600061191061190b84612409565b61238c565b90508281526020810184848401111561192857600080fd5b6119338482856125e5565b509392505050565b60008135905061194a81612bfb565b92915050565b600082601f83011261196157600080fd5b8135611971848260208601611825565b91505092915050565b600082601f83011261198b57600080fd5b813561199b848260208601611891565b91505092915050565b6000813590506119b381612c12565b92915050565b6000813590506119c881612c29565b92915050565b6000815190506119dd81612c29565b92915050565b600082601f8301126119f457600080fd5b8135611a048482602086016118fd565b91505092915050565b600081359050611a1c81612c40565b92915050565b60008060408385031215611a3557600080fd5b6000611a438582860161193b565b9250506020611a548582860161193b565b9150509250929050565b600080600080600060a08688031215611a7657600080fd5b6000611a848882890161193b565b9550506020611a958882890161193b565b945050604086013567ffffffffffffffff811115611ab257600080fd5b611abe8882890161197a565b935050606086013567ffffffffffffffff811115611adb57600080fd5b611ae78882890161197a565b925050608086013567ffffffffffffffff811115611b0457600080fd5b611b10888289016119e3565b9150509295509295909350565b600080600080600060a08688031215611b3557600080fd5b6000611b438882890161193b565b9550506020611b548882890161193b565b9450506040611b6588828901611a0d565b9350506060611b7688828901611a0d565b925050608086013567ffffffffffffffff811115611b9357600080fd5b611b9f888289016119e3565b9150509295509295909350565b60008060408385031215611bbf57600080fd5b6000611bcd8582860161193b565b9250506020611bde858286016119a4565b9150509250929050565b60008060408385031215611bfb57600080fd5b6000611c098582860161193b565b9250506020611c1a85828601611a0d565b9150509250929050565b60008060408385031215611c3757600080fd5b600083013567ffffffffffffffff811115611c5157600080fd5b611c5d85828601611950565b925050602083013567ffffffffffffffff811115611c7a57600080fd5b611c868582860161197a565b9150509250929050565b600060208284031215611ca257600080fd5b6000611cb0848285016119b9565b91505092915050565b600060208284031215611ccb57600080fd5b6000611cd9848285016119ce565b91505092915050565b600060208284031215611cf457600080fd5b6000611d0284828501611a0d565b91505092915050565b60008060408385031215611d1e57600080fd5b6000611d2c85828601611a0d565b9250506020611d3d85828601611a0d565b9150509250929050565b600080600060608486031215611d5c57600080fd5b6000611d6a86828701611a0d565b9350506020611d7b86828701611a0d565b9250506040611d8c8682870161193b565b9150509250925092565b6000611da2838361204e565b60208301905092915050565b611db781612571565b82525050565b6000611dc88261244a565b611dd28185612478565b9350611ddd8361243a565b8060005b83811015611e0e578151611df58882611d96565b9750611e008361246b565b925050600181019050611de1565b5085935050505092915050565b611e2481612583565b82525050565b6000611e3582612455565b611e3f8185612489565b9350611e4f8185602086016125f4565b611e58816127e2565b840191505092915050565b6000611e6e82612460565b611e78818561249a565b9350611e888185602086016125f4565b611e91816127e2565b840191505092915050565b6000611ea782612460565b611eb181856124ab565b9350611ec18185602086016125f4565b80840191505092915050565b6000611eda60348361249a565b9150611ee582612800565b604082019050919050565b6000611efd60288361249a565b9150611f088261284f565b604082019050919050565b6000611f20602b8361249a565b9150611f2b8261289e565b604082019050919050565b6000611f4360298361249a565b9150611f4e826128ed565b604082019050919050565b6000611f6660258361249a565b9150611f718261293c565b604082019050919050565b6000611f8960328361249a565b9150611f948261298b565b604082019050919050565b6000611fac602a8361249a565b9150611fb7826129da565b604082019050919050565b6000611fcf60298361249a565b9150611fda82612a29565b604082019050919050565b6000611ff260298361249a565b9150611ffd82612a78565b604082019050919050565b600061201560288361249a565b915061202082612ac7565b604082019050919050565b600061203860218361249a565b915061204382612b16565b604082019050919050565b612057816125db565b82525050565b612066816125db565b82525050565b60006120788285611e9c565b91506120848284611e9c565b91508190509392505050565b600060a0820190506120a56000830188611dae565b6120b26020830187611dae565b81810360408301526120c48186611dbd565b905081810360608301526120d88185611dbd565b905081810360808301526120ec8184611e2a565b90509695505050505050565b600060a08201905061210d6000830188611dae565b61211a6020830187611dae565b612127604083018661205d565b612134606083018561205d565b81810360808301526121468184611e2a565b90509695505050505050565b6000602082019050818103600083015261216c8184611dbd565b905092915050565b6000604082019050818103600083015261218e8185611dbd565b905081810360208301526121a28184611dbd565b90509392505050565b60006020820190506121c06000830184611e1b565b92915050565b600060208201905081810360008301526121e08184611e63565b905092915050565b6000602082019050818103600083015261220181611ecd565b9050919050565b6000602082019050818103600083015261222181611ef0565b9050919050565b6000602082019050818103600083015261224181611f13565b9050919050565b6000602082019050818103600083015261226181611f36565b9050919050565b6000602082019050818103600083015261228181611f59565b9050919050565b600060208201905081810360008301526122a181611f7c565b9050919050565b600060208201905081810360008301526122c181611f9f565b9050919050565b600060208201905081810360008301526122e181611fc2565b9050919050565b6000602082019050818103600083015261230181611fe5565b9050919050565b6000602082019050818103600083015261232181612008565b9050919050565b600060208201905081810360008301526123418161202b565b9050919050565b600060208201905061235d600083018461205d565b92915050565b6000604082019050612378600083018561205d565b612385602083018461205d565b9392505050565b60006123966123a7565b90506123a28282612659565b919050565b6000604051905090565b600067ffffffffffffffff8211156123cc576123cb612791565b5b602082029050602081019050919050565b600067ffffffffffffffff8211156123f8576123f7612791565b5b602082029050602081019050919050565b600067ffffffffffffffff82111561242457612423612791565b5b61242d826127e2565b9050602081019050919050565b6000819050602082019050919050565b600081519050919050565b600081519050919050565b600081519050919050565b6000602082019050919050565b600082825260208201905092915050565b600082825260208201905092915050565b600082825260208201905092915050565b600081905092915050565b60006124c1826125db565b91506124cc836125db565b9250827fffffffffffffffffffffffffffffffffffffffffffffffffffffffffffffffff0382111561250157612500612704565b5b828201905092915050565b6000612517826125db565b9150612522836125db565b92508261253257612531612733565b5b828204905092915050565b6000612548826125db565b9150612553836125db565b92508282101561256657612565612704565b5b828203905092915050565b600061257c826125bb565b9050919050565b60008115159050919050565b60007fffffffff0000000000000000000000000000000000000000000000000000000082169050919050565b600073ffffffffffffffffffffffffffffffffffffffff82169050919050565b6000819050919050565b82818337600083830152505050565b60005b838110156126125780820151818401526020810190506125f7565b83811115612621576000848401525b50505050565b6000600282049050600182168061263f57607f821691505b6020821081141561265357612652612762565b5b50919050565b612662826127e2565b810181811067ffffffffffffffff8211171561268157612680612791565b5b80604052505050565b6000612695826125db565b91507fffffffffffffffffffffffffffffffffffffffffffffffffffffffffffffffff8214156126c8576126c7612704565b5b600182019050919050565b60006126de826125db565b91506126e9836125db565b9250826126f9576126f8612733565b5b828206905092915050565b7f4e487b7100000000000000000000000000000000000000000000000000000000600052601160045260246000fd5b7f4e487b7100000000000000000000000000000000000000000000000000000000600052601260045260246000fd5b7f4e487b7100000000000000000000000000000000000000000000000000000000600052602260045260246000fd5b7f4e487b7100000000000000000000000000000000000000000000000000000000600052604160045260246000fd5b600060033d11156127df5760046000803e6127dc6000516127f3565b90505b90565b6000601f19601f8301169050919050565b60008160e01c9050919050565b7f455243313135353a207472616e7366657220746f206e6f6e204552433131353560008201527f526563656976657220696d706c656d656e746572000000000000000000000000602082015250565b7f455243313135353a204552433131353552656365697665722072656a6563746560008201527f6420746f6b656e73000000000000000000000000000000000000000000000000602082015250565b7f455243313135353a2062616c616e636520717565727920666f7220746865207a60008201527f65726f2061646472657373000000000000000000000000000000000000000000602082015250565b7f455243313135353a2063616c6c6572206973206e6f74206f776e6572206e6f7260008201527f20617070726f7665640000000000000000000000000000000000000000000000602082015250565b7f455243313135353a207472616e7366657220746f20746865207a65726f20616460008201527f6472657373000000000000000000000000000000000000000000000000000000602082015250565b7f455243313135353a207472616e736665722063616c6c6572206973206e6f742060008201527f6f776e6572206e6f7220617070726f7665640000000000000000000000000000602082015250565b7f455243313135353a20696e73756666696369656e742062616c616e636520666f60008201527f72207472616e7366657200000000000000000000000000000000000000000000602082015250565b7f455243313135353a2073657474696e6720617070726f76616c2073746174757360008201527f20666f722073656c660000000000000000000000000000000000000000000000602082015250565b7f455243313135353a206163636f756e747320616e6420696473206c656e67746860008201527f206d69736d617463680000000000000000000000000000000000000000000000602082015250565b7f455243313135353a2069647320616e6420616d6f756e7473206c656e6774682060008201527f6d69736d61746368000000000000000000000000000000000000000000000000602082015250565b7f455243313135353a206d696e7420746f20746865207a65726f2061646472657360008201527f7300000000000000000000000000000000000000000000000000000000000000602082015250565b600060443d1015612b7557612bf8565b612b7d6123a7565b60043d036004823e80513d602482011167ffffffffffffffff82111715612ba5575050612bf8565b808201805167ffffffffffffffff811115612bc35750505050612bf8565b80602083010160043d038501811115612be0575050505050612bf8565b612bef82602001850186612659565b82955050505050505b90565b612c0481612571565b8114612c0f57600080fd5b50565b612c1b81612583565b8114612c2657600080fd5b50565b612c328161258f565b8114612c3d57600080fd5b50565b612c49816125db565b8114612c5457600080fd5b5056fea2646970667358221220fb07c3ecccf956765bb416deb66a270dee6b62d719169a16988dab010d6aa89764736f6c6343000804003368747470733a2f2f6578616d706c652e636f6d2f746f6b656e2f313135352f6d657461646174612f",
  "linkReferences": {},
  "deployedLinkReferences": {}
}