{
  "_format": "hh-sol-artifact-1",
  "contractName": "Doodles",
  "sourceName": "contracts/nftsale.sol",
  "abi": [
    {
      "inputs": [],
      "stateMutability": "nonpayable",
      "type": "constructor"
    },
    {
      "anonymous": false,
      "inputs": [
        {
          "indexed": true,
          "internalType": "address",
          "name": "owner",
          "type": "address"
        },
        {
          "indexed": true,
          "internalType": "address",
          "name": "approved",
          "type": "address"
        },
        {
          "indexed": true,
          "internalType": "uint256",
          "name": "tokenId",
          "type": "uint256"
        }
      ],
      "name": "Approval",
      "type": "event"
    },
    {
      "anonymous": false,
      "inputs": [
        {
          "indexed": true,
          "internalType": "address",
          "name": "owner",
          "type": "address"
        },
        {
          "indexed": true,
          "internalType": "address",
          "name": "operator",
          "type": "address"
        },
        {
          "indexed": false,
          "internalType": "bool",
          "name": "approved",
          "type": "bool"
        }
      ],
      "name": "ApprovalForAll",
      "type": "event"
    },
    {
      "anonymous": false,
      "inputs": [
        {
          "indexed": true,
          "internalType": "address",
          "name": "previousOwner",
          "type": "address"
        },
        {
          "indexed": true,
          "internalType": "address",
          "name": "newOwner",
          "type": "address"
        }
      ],
      "name": "OwnershipTransferred",
      "type": "event"
    },
    {
      "anonymous": false,
      "inputs": [
        {
          "indexed": true,
          "internalType": "address",
          "name": "from",
          "type": "address"
        },
        {
          "indexed": true,
          "internalType": "address",
          "name": "to",
          "type": "address"
        },
        {
          "indexed": true,
          "internalType": "uint256",
          "name": "tokenId",
          "type": "uint256"
        }
      ],
      "name": "Transfer",
      "type": "event"
    },
    {
      "inputs": [],
      "name": "MAX_PUBLIC_MINT",
      "outputs": [
        {
          "internalType": "uint256",
          "name": "",
          "type": "uint256"
        }
      ],
      "stateMutability": "view",
      "type": "function"
    },
    {
      "inputs": [],
      "name": "MAX_SUPPLY",
      "outputs": [
        {
          "internalType": "uint256",
          "name": "",
          "type": "uint256"
        }
      ],
      "stateMutability": "view",
      "type": "function"
    },
    {
      "inputs": [],
      "name": "PRICE_PER_TOKEN",
      "outputs": [
        {
          "internalType": "uint256",
          "name": "",
          "type": "uint256"
        }
      ],
      "stateMutability": "view",
      "type": "function"
    },
    {
      "inputs": [],
      "name": "PROVENANCE",
      "outputs": [
        {
          "internalType": "string",
          "name": "",
          "type": "string"
        }
      ],
      "stateMutability": "view",
      "type": "function"
    },
    {
      "inputs": [
        {
          "internalType": "address",
          "name": "to",
          "type": "address"
        },
        {
          "internalType": "uint256",
          "name": "tokenId",
          "type": "uint256"
        }
      ],
      "name": "approve",
      "outputs": [],
      "stateMutability": "nonpayable",
      "type": "function"
    },
    {
      "inputs": [
        {
          "internalType": "address",
          "name": "owner",
          "type": "address"
        }
      ],
      "name": "balanceOf",
      "outputs": [
        {
          "internalType": "uint256",
          "name": "",
          "type": "uint256"
        }
      ],
      "stateMutability": "view",
      "type": "function"
    },
    {
      "inputs": [
        {
          "internalType": "uint256",
          "name": "tokenId",
          "type": "uint256"
        }
      ],
      "name": "getApproved",
      "outputs": [
        {
          "internalType": "address",
          "name": "",
          "type": "address"
        }
      ],
      "stateMutability": "view",
      "type": "function"
    },
    {
      "inputs": [],
      "name": "isAllowListActive",
      "outputs": [
        {
          "internalType": "bool",
          "name": "",
          "type": "bool"
        }
      ],
      "stateMutability": "view",
      "type": "function"
    },
    {
      "inputs": [
        {
          "internalType": "address",
          "name": "owner",
          "type": "address"
        },
        {
          "internalType": "address",
          "name": "operator",
          "type": "address"
        }
      ],
      "name": "isApprovedForAll",
      "outputs": [
        {
          "internalType": "bool",
          "name": "",
          "type": "bool"
        }
      ],
      "stateMutability": "view",
      "type": "function"
    },
    {
      "inputs": [
        {
          "internalType": "uint256",
          "name": "numberOfTokens",
          "type": "uint256"
        }
      ],
      "name": "mint",
      "outputs": [],
      "stateMutability": "payable",
      "type": "function"
    },
    {
      "inputs": [
        {
          "internalType": "uint8",
          "name": "numberOfTokens",
          "type": "uint8"
        }
      ],
      "name": "mintAllowList",
      "outputs": [],
      "stateMutability": "payable",
      "type": "function"
    },
    {
      "inputs": [],
      "name": "name",
      "outputs": [
        {
          "internalType": "string",
          "name": "",
          "type": "string"
        }
      ],
      "stateMutability": "view",
      "type": "function"
    },
    {
      "inputs": [
        {
          "internalType": "address",
          "name": "addr",
          "type": "address"
        }
      ],
      "name": "numAvailableToMint",
      "outputs": [
        {
          "internalType": "uint8",
          "name": "",
          "type": "uint8"
        }
      ],
      "stateMutability": "view",
      "type": "function"
    },
    {
      "inputs": [],
      "name": "owner",
      "outputs": [
        {
          "internalType": "address",
          "name": "",
          "type": "address"
        }
      ],
      "stateMutability": "view",
      "type": "function"
    },
    {
      "inputs": [
        {
          "internalType": "uint256",
          "name": "tokenId",
          "type": "uint256"
        }
      ],
      "name": "ownerOf",
      "outputs": [
        {
          "internalType": "address",
          "name": "",
          "type": "address"
        }
      ],
      "stateMutability": "view",
      "type": "function"
    },
    {
      "inputs": [],
      "name": "renounceOwnership",
      "outputs": [],
      "stateMutability": "nonpayable",
      "type": "function"
    },
    {
      "inputs": [
        {
          "internalType": "uint256",
          "name": "n",
          "type": "uint256"
        }
      ],
      "name": "reserve",
      "outputs": [],
      "stateMutability": "nonpayable",
      "type": "function"
    },
    {
      "inputs": [
        {
          "internalType": "address",
          "name": "from",
          "type": "address"
        },
        {
          "internalType": "address",
          "name": "to",
          "type": "address"
        },
        {
          "internalType": "uint256",
          "name": "tokenId",
          "type": "uint256"
        }
      ],
      "name": "safeTransferFrom",
      "outputs": [],
      "stateMutability": "nonpayable",
      "type": "function"
    },
    {
      "inputs": [
        {
          "internalType": "address",
          "name": "from",
          "type": "address"
        },
        {
          "internalType": "address",
          "name": "to",
          "type": "address"
        },
        {
          "internalType": "uint256",
          "name": "tokenId",
          "type": "uint256"
        },
        {
          "internalType": "bytes",
          "name": "_data",
          "type": "bytes"
        }
      ],
      "name": "safeTransferFrom",
      "outputs": [],
      "stateMutability": "nonpayable",
      "type": "function"
    },
    {
      "inputs": [],
      "name": "saleIsActive",
      "outputs": [
        {
          "internalType": "bool",
          "name": "",
          "type": "bool"
        }
      ],
      "stateMutability": "view",
      "type": "function"
    },
    {
      "inputs": [
        {
          "internalType": "address[]",
          "name": "addresses",
          "type": "address[]"
        },
        {
          "internalType": "uint8",
          "name": "numAllowedToMint",
          "type": "uint8"
        }
      ],
      "name": "setAllowList",
      "outputs": [],
      "stateMutability": "nonpayable",
      "type": "function"
    },
    {
      "inputs": [
        {
          "internalType": "address",
          "name": "operator",
          "type": "address"
        },
        {
          "internalType": "bool",
          "name": "approved",
          "type": "bool"
        }
      ],
      "name": "setApprovalForAll",
      "outputs": [],
      "stateMutability": "nonpayable",
      "type": "function"
    },
    {
      "inputs": [
        {
          "internalType": "string",
          "name": "baseURI_",
          "type": "string"
        }
      ],
      "name": "setBaseURI",
      "outputs": [],
      "stateMutability": "nonpayable",
      "type": "function"
    },
    {
      "inputs": [
        {
          "internalType": "bool",
          "name": "_isAllowListActive",
          "type": "bool"
        }
      ],
      "name": "setIsAllowListActive",
      "outputs": [],
      "stateMutability": "nonpayable",
      "type": "function"
    },
    {
      "inputs": [
        {
          "internalType": "string",
          "name": "provenance",
          "type": "string"
        }
      ],
      "name": "setProvenance",
      "outputs": [],
      "stateMutability": "nonpayable",
      "type": "function"
    },
    {
      "inputs": [
        {
          "internalType": "bool",
          "name": "newState",
          "type": "bool"
        }
      ],
      "name": "setSaleState",
      "outputs": [],
      "stateMutability": "nonpayable",
      "type": "function"
    },
    {
      "inputs": [
        {
          "internalType": "bytes4",
          "name": "interfaceId",
          "type": "bytes4"
        }
      ],
      "name": "supportsInterface",
      "outputs": [
        {
          "internalType": "bool",
          "name": "",
          "type": "bool"
        }
      ],
      "stateMutability": "view",
      "type": "function"
    },
    {
      "inputs": [],
      "name": "symbol",
      "outputs": [
        {
          "internalType": "string",
          "name": "",
          "type": "string"
        }
      ],
      "stateMutability": "view",
      "type": "function"
    },
    {
      "inputs": [
        {
          "internalType": "uint256",
          "name": "index",
          "type": "uint256"
        }
      ],
      "name": "tokenByIndex",
      "outputs": [
        {
          "internalType": "uint256",
          "name": "",
          "type": "uint256"
        }
      ],
      "stateMutability": "view",
      "type": "function"
    },
    {
      "inputs": [
        {
          "internalType": "address",
          "name": "owner",
          "type": "address"
        },
        {
          "internalType": "uint256",
          "name": "index",
          "type": "uint256"
        }
      ],
      "name": "tokenOfOwnerByIndex",
      "outputs": [
        {
          "internalType": "uint256",
          "name": "",
          "type": "uint256"
        }
      ],
      "stateMutability": "view",
      "type": "function"
    },
    {
      "inputs": [
        {
          "internalType": "uint256",
          "name": "tokenId",
          "type": "uint256"
        }
      ],
      "name": "tokenURI",
      "outputs": [
        {
          "internalType": "string",
          "name": "",
          "type": "string"
        }
      ],
      "stateMutability": "view",
      "type": "function"
    },
    {
      "inputs": [],
      "name": "totalSupply",
      "outputs": [
        {
          "internalType": "uint256",
          "name": "",
          "type": "uint256"
        }
      ],
      "stateMutability": "view",
      "type": "function"
    },
    {
      "inputs": [
        {
          "internalType": "address",
          "name": "from",
          "type": "address"
        },
        {
          "internalType": "address",
          "name": "to",
          "type": "address"
        },
        {
          "internalType": "uint256",
          "name": "tokenId",
          "type": "uint256"
        }
      ],
      "name": "transferFrom",
      "outputs": [],
      "stateMutability": "nonpayable",
      "type": "function"
    },
    {
      "inputs": [
        {
          "internalType": "address",
          "name": "newOwner",
          "type": "address"
        }
      ],
      "name": "transferOwnership",
      "outputs": [],
      "stateMutability": "nonpayable",
      "type": "function"
    },
    {
      "inputs": [],
      "name": "withdraw",
      "outputs": [],
      "stateMutability": "nonpayable",
      "type": "function"
    }
  ],
  "bytecode": "0x6080604052600c805460ff19908116909155600e805490911690553480156200002757600080fd5b506040805180820182526007815266446f6f646c657360c81b602080830191825283518085019094526006845265444f4f444c4560d01b908401528151919291620000759160009162000104565b5080516200008b90600190602084019062000104565b505050620000a8620000a2620000ae60201b60201c565b620000b2565b620001e7565b3390565b600a80546001600160a01b038381166001600160a01b0319831681179093556040519116919082907f8be0079c531659141344cd1fd0a4f28419497f9722a3daafe3b4186f6b6457e090600090a35050565b8280546200011290620001aa565b90600052602060002090601f01602090048101928262000136576000855562000181565b82601f106200015157805160ff191683800117855562000181565b8280016001018555821562000181579182015b828111156200018157825182559160200191906001019062000164565b506200018f92915062000193565b5090565b5b808211156200018f576000815560010162000194565b600181811c90821680620001bf57607f821691505b60208210811415620001e157634e487b7160e01b600052602260045260246000fd5b50919050565b61260780620001f76000396000f3fe6080604052600436106102045760003560e01c8063715018a611610118578063b88d4fde116100a0578063ddff5b1c1161006f578063ddff5b1c146105ca578063e985e9c5146105dd578063eb8d244414610626578063f2fde38b14610640578063ffe630b51461066057600080fd5b8063b88d4fde1461051f578063c04a28361461053f578063c4e370951461058a578063c87b56dd146105aa57600080fd5b8063833b9499116100e7578063833b94991461049d5780638da5cb5b146104b957806395d89b41146104d7578063a0712d68146104ec578063a22cb465146104ff57600080fd5b8063715018a614610428578063718bc4af1461043d578063819b25ba1461045d5780638295784d1461047d57600080fd5b806332cb6b0c1161019b57806355f804b31161016a57806355f804b31461039e5780636352211e146103be5780636373a6b1146103de57806365f13097146103f357806370a082311461040857600080fd5b806332cb6b0c146103335780633ccfd60b1461034957806342842e0e1461035e5780634f6ccce71461037e57600080fd5b806318160ddd116101d757806318160ddd146102ba57806323b872dd146102d957806329fc6bae146102f95780632f745c591461031357600080fd5b806301ffc9a71461020957806306fdde031461023e578063081812fc14610260578063095ea7b314610298575b600080fd5b34801561021557600080fd5b5061022961022436600461222b565b610680565b60405190151581526020015b60405180910390f35b34801561024a57600080fd5b50610253610691565b6040516102359190612373565b34801561026c57600080fd5b5061028061027b3660046122a9565b610723565b6040516001600160a01b039091168152602001610235565b3480156102a457600080fd5b506102b86102b3366004612169565b6107bd565b005b3480156102c657600080fd5b506008545b604051908152602001610235565b3480156102e557600080fd5b506102b86102f436600461208c565b6108d3565b34801561030557600080fd5b50600e546102299060ff1681565b34801561031f57600080fd5b506102cb61032e366004612169565b610904565b34801561033f57600080fd5b506102cb61271081565b34801561035557600080fd5b506102b861099a565b34801561036a57600080fd5b506102b861037936600461208c565b6109f7565b34801561038a57600080fd5b506102cb6103993660046122a9565b610a12565b3480156103aa57600080fd5b506102b86103b9366004612263565b610ab3565b3480156103ca57600080fd5b506102806103d93660046122a9565b610af0565b3480156103ea57600080fd5b50610253610b67565b3480156103ff57600080fd5b506102cb600581565b34801561041457600080fd5b506102cb610423366004612040565b610bf5565b34801561043457600080fd5b506102b8610c7c565b34801561044957600080fd5b506102b8610458366004612211565b610cb2565b34801561046957600080fd5b506102b86104783660046122a9565b610cef565b34801561048957600080fd5b506102b8610498366004612192565b610d56565b3480156104a957600080fd5b506102cb6701b4fbd92b5f800081565b3480156104c557600080fd5b50600a546001600160a01b0316610280565b3480156104e357600080fd5b50610253610e08565b6102b86104fa3660046122a9565b610e17565b34801561050b57600080fd5b506102b861051a366004612140565b610fba565b34801561052b57600080fd5b506102b861053a3660046120c7565b61107f565b34801561054b57600080fd5b5061057861055a366004612040565b6001600160a01b03166000908152600f602052604090205460ff1690565b60405160ff9091168152602001610235565b34801561059657600080fd5b506102b86105a5366004612211565b6110b1565b3480156105b657600080fd5b506102536105c53660046122a9565b6110ee565b6102b86105d83660046122c1565b6111c9565b3480156105e957600080fd5b506102296105f836600461205a565b6001600160a01b03918216600090815260056020908152604080832093909416825291909152205460ff1690565b34801561063257600080fd5b50600c546102299060ff1681565b34801561064c57600080fd5b506102b861065b366004612040565b6113c4565b34801561066c57600080fd5b506102b861067b366004612263565b61145f565b600061068b8261149c565b92915050565b6060600080546106a09061250f565b80601f01602080910402602001604051908101604052809291908181526020018280546106cc9061250f565b80156107195780601f106106ee57610100808354040283529160200191610719565b820191906000526020600020905b8154815290600101906020018083116106fc57829003601f168201915b5050505050905090565b6000818152600260205260408120546001600160a01b03166107a15760405162461bcd60e51b815260206004820152602c60248201527f4552433732313a20617070726f76656420717565727920666f72206e6f6e657860448201526b34b9ba32b73a103a37b5b2b760a11b60648201526084015b60405180910390fd5b506000908152600460205260409020546001600160a01b031690565b60006107c882610af0565b9050806001600160a01b0316836001600160a01b031614156108365760405162461bcd60e51b815260206004820152602160248201527f4552433732313a20617070726f76616c20746f2063757272656e74206f776e656044820152603960f91b6064820152608401610798565b336001600160a01b0382161480610852575061085281336105f8565b6108c45760405162461bcd60e51b815260206004820152603860248201527f4552433732313a20617070726f76652063616c6c6572206973206e6f74206f7760448201527f6e6572206e6f7220617070726f76656420666f7220616c6c00000000000000006064820152608401610798565b6108ce83836114c1565b505050565b6108dd338261152f565b6108f95760405162461bcd60e51b81526004016107989061240d565b6108ce838383611626565b600061090f83610bf5565b82106109715760405162461bcd60e51b815260206004820152602b60248201527f455243373231456e756d657261626c653a206f776e657220696e646578206f7560448201526a74206f6620626f756e647360a81b6064820152608401610798565b506001600160a01b03919091166000908152600660209081526040808320938352929052205490565b600a546001600160a01b031633146109c45760405162461bcd60e51b8152600401610798906123d8565b6040514790339082156108fc029083906000818181858888f193505050501580156109f3573d6000803e3d6000fd5b5050565b6108ce8383836040518060200160405280600081525061107f565b6000610a1d60085490565b8210610a805760405162461bcd60e51b815260206004820152602c60248201527f455243373231456e756d657261626c653a20676c6f62616c20696e646578206f60448201526b7574206f6620626f756e647360a01b6064820152608401610798565b60088281548110610aa157634e487b7160e01b600052603260045260246000fd5b90600052602060002001549050919050565b600a546001600160a01b03163314610add5760405162461bcd60e51b8152600401610798906123d8565b80516109f390600d906020840190611ef4565b6000818152600260205260408120546001600160a01b03168061068b5760405162461bcd60e51b815260206004820152602960248201527f4552433732313a206f776e657220717565727920666f72206e6f6e657869737460448201526832b73a103a37b5b2b760b91b6064820152608401610798565b600b8054610b749061250f565b80601f0160208091040260200160405190810160405280929190818152602001828054610ba09061250f565b8015610bed5780601f10610bc257610100808354040283529160200191610bed565b820191906000526020600020905b815481529060010190602001808311610bd057829003601f168201915b505050505081565b60006001600160a01b038216610c605760405162461bcd60e51b815260206004820152602a60248201527f4552433732313a2062616c616e636520717565727920666f7220746865207a65604482015269726f206164647265737360b01b6064820152608401610798565b506001600160a01b031660009081526003602052604090205490565b600a546001600160a01b03163314610ca65760405162461bcd60e51b8152600401610798906123d8565b610cb060006117d1565b565b600a546001600160a01b03163314610cdc5760405162461bcd60e51b8152600401610798906123d8565b600e805460ff1916911515919091179055565b600a546001600160a01b03163314610d195760405162461bcd60e51b8152600401610798906123d8565b6000610d2460085490565b905060005b828110156108ce57610d4433610d3f838561245e565b611823565b80610d4e8161254a565b915050610d29565b600a546001600160a01b03163314610d805760405162461bcd60e51b8152600401610798906123d8565b60005b82811015610e025781600f6000868685818110610db057634e487b7160e01b600052603260045260246000fd5b9050602002016020810190610dc59190612040565b6001600160a01b031681526020810191909152604001600020805460ff191660ff9290921691909117905580610dfa8161254a565b915050610d83565b50505050565b6060600180546106a09061250f565b6000610e2260085490565b600c5490915060ff16610e825760405162461bcd60e51b815260206004820152602260248201527f53616c65206d7573742062652061637469766520746f206d696e7420746f6b656044820152616e7360f01b6064820152608401610798565b6005821115610ed35760405162461bcd60e51b815260206004820152601b60248201527f4578636565646564206d617820746f6b656e20707572636861736500000000006044820152606401610798565b612710610ee0838361245e565b1115610f2e5760405162461bcd60e51b815260206004820181905260248201527f507572636861736520776f756c6420657863656564206d617820746f6b656e736044820152606401610798565b34610f41836701b4fbd92b5f800061248a565b1115610f8f5760405162461bcd60e51b815260206004820152601f60248201527f45746865722076616c75652073656e74206973206e6f7420636f7272656374006044820152606401610798565b60005b828110156108ce57610fa833610d3f838561245e565b80610fb28161254a565b915050610f92565b6001600160a01b0382163314156110135760405162461bcd60e51b815260206004820152601960248201527f4552433732313a20617070726f766520746f2063616c6c6572000000000000006044820152606401610798565b3360008181526005602090815260408083206001600160a01b03871680855290835292819020805460ff191686151590811790915590519081529192917f17307eab39ab6107e8899845ad3d59bd9653f200f220920489ca2b5937696c31910160405180910390a35050565b611089338361152f565b6110a55760405162461bcd60e51b81526004016107989061240d565b610e028484848461183d565b600a546001600160a01b031633146110db5760405162461bcd60e51b8152600401610798906123d8565b600c805460ff1916911515919091179055565b6000818152600260205260409020546060906001600160a01b031661116d5760405162461bcd60e51b815260206004820152602f60248201527f4552433732314d657461646174613a2055524920717565727920666f72206e6f60448201526e3732bc34b9ba32b73a103a37b5b2b760891b6064820152608401610798565b6000611177611870565b9050600081511161119757604051806020016040528060008152506111c2565b806111a18461187f565b6040516020016111b2929190612307565b6040516020818303038152906040525b9392505050565b60006111d460085490565b600e5490915060ff166112295760405162461bcd60e51b815260206004820152601860248201527f416c6c6f77206c697374206973206e6f742061637469766500000000000000006044820152606401610798565b336000908152600f602052604090205460ff908116908316111561129a5760405162461bcd60e51b815260206004820152602260248201527f4578636565646564206d617820617661696c61626c6520746f20707572636861604482015261736560f01b6064820152608401610798565b6127106112aa60ff84168361245e565b11156112f85760405162461bcd60e51b815260206004820181905260248201527f507572636861736520776f756c6420657863656564206d617820746f6b656e736044820152606401610798565b3461130e60ff84166701b4fbd92b5f800061248a565b111561135c5760405162461bcd60e51b815260206004820152601f60248201527f45746865722076616c75652073656e74206973206e6f7420636f7272656374006044820152606401610798565b336000908152600f60205260408120805484929061137e90849060ff166124c0565b92506101000a81548160ff021916908360ff16021790555060005b8260ff168110156108ce576113b233610d3f838561245e565b806113bc8161254a565b915050611399565b600a546001600160a01b031633146113ee5760405162461bcd60e51b8152600401610798906123d8565b6001600160a01b0381166114535760405162461bcd60e51b815260206004820152602660248201527f4f776e61626c653a206e6577206f776e657220697320746865207a65726f206160448201526564647265737360d01b6064820152608401610798565b61145c816117d1565b50565b600a546001600160a01b031633146114895760405162461bcd60e51b8152600401610798906123d8565b80516109f390600b906020840190611ef4565b60006001600160e01b0319821663780e9d6360e01b148061068b575061068b82611999565b600081815260046020526040902080546001600160a01b0319166001600160a01b03841690811790915581906114f682610af0565b6001600160a01b03167f8c5be1e5ebec7d5bd14f71427d1e84f3dd0314c0f7b2291e5b200ac8c7c3b92560405160405180910390a45050565b6000818152600260205260408120546001600160a01b03166115a85760405162461bcd60e51b815260206004820152602c60248201527f4552433732313a206f70657261746f7220717565727920666f72206e6f6e657860448201526b34b9ba32b73a103a37b5b2b760a11b6064820152608401610798565b60006115b383610af0565b9050806001600160a01b0316846001600160a01b031614806115ee5750836001600160a01b03166115e384610723565b6001600160a01b0316145b8061161e57506001600160a01b0380821660009081526005602090815260408083209388168352929052205460ff165b949350505050565b826001600160a01b031661163982610af0565b6001600160a01b0316146116a15760405162461bcd60e51b815260206004820152602960248201527f4552433732313a207472616e73666572206f6620746f6b656e2074686174206960448201526839903737ba1037bbb760b91b6064820152608401610798565b6001600160a01b0382166117035760405162461bcd60e51b8152602060048201526024808201527f4552433732313a207472616e7366657220746f20746865207a65726f206164646044820152637265737360e01b6064820152608401610798565b61170e8383836119e9565b6117196000826114c1565b6001600160a01b03831660009081526003602052604081208054600192906117429084906124a9565b90915550506001600160a01b038216600090815260036020526040812080546001929061177090849061245e565b909155505060008181526002602052604080822080546001600160a01b0319166001600160a01b0386811691821790925591518493918716917fddf252ad1be2c89b69c2b068fc378daa952ba7f163c4a11628f55a4df523b3ef91a4505050565b600a80546001600160a01b038381166001600160a01b0319831681179093556040519116919082907f8be0079c531659141344cd1fd0a4f28419497f9722a3daafe3b4186f6b6457e090600090a35050565b6109f38282604051806020016040528060008152506119f4565b611848848484611626565b61185484848484611a27565b610e025760405162461bcd60e51b815260040161079890612386565b6060600d80546106a09061250f565b6060816118a35750506040805180820190915260018152600360fc1b602082015290565b8160005b81156118cd57806118b78161254a565b91506118c69050600a83612476565b91506118a7565b60008167ffffffffffffffff8111156118f657634e487b7160e01b600052604160045260246000fd5b6040519080825280601f01601f191660200182016040528015611920576020820181803683370190505b5090505b841561161e576119356001836124a9565b9150611942600a86612565565b61194d90603061245e565b60f81b81838151811061197057634e487b7160e01b600052603260045260246000fd5b60200101906001600160f81b031916908160001a905350611992600a86612476565b9450611924565b60006001600160e01b031982166380ac58cd60e01b14806119ca57506001600160e01b03198216635b5e139f60e01b145b8061068b57506301ffc9a760e01b6001600160e01b031983161461068b565b6108ce838383611b34565b6119fe8383611bec565b611a0b6000848484611a27565b6108ce5760405162461bcd60e51b815260040161079890612386565b60006001600160a01b0384163b15611b2957604051630a85bd0160e11b81526001600160a01b0385169063150b7a0290611a6b903390899088908890600401612336565b602060405180830381600087803b158015611a8557600080fd5b505af1925050508015611ab5575060408051601f3d908101601f19168201909252611ab291810190612247565b60015b611b0f573d808015611ae3576040519150601f19603f3d011682016040523d82523d6000602084013e611ae8565b606091505b508051611b075760405162461bcd60e51b815260040161079890612386565b805181602001fd5b6001600160e01b031916630a85bd0160e11b14905061161e565b506001949350505050565b6001600160a01b038316611b8f57611b8a81600880546000838152600960205260408120829055600182018355919091527ff3f7a9fe364faab93b216da50a3214154f22a0a2b415b23a84c8169e8b636ee30155565b611bb2565b816001600160a01b0316836001600160a01b031614611bb257611bb28382611d3a565b6001600160a01b038216611bc9576108ce81611dd7565b826001600160a01b0316826001600160a01b0316146108ce576108ce8282611eb0565b6001600160a01b038216611c425760405162461bcd60e51b815260206004820181905260248201527f4552433732313a206d696e7420746f20746865207a65726f20616464726573736044820152606401610798565b6000818152600260205260409020546001600160a01b031615611ca75760405162461bcd60e51b815260206004820152601c60248201527f4552433732313a20746f6b656e20616c7265616479206d696e746564000000006044820152606401610798565b611cb3600083836119e9565b6001600160a01b0382166000908152600360205260408120805460019290611cdc90849061245e565b909155505060008181526002602052604080822080546001600160a01b0319166001600160a01b03861690811790915590518392907fddf252ad1be2c89b69c2b068fc378daa952ba7f163c4a11628f55a4df523b3ef908290a45050565b60006001611d4784610bf5565b611d5191906124a9565b600083815260076020526040902054909150808214611da4576001600160a01b03841660009081526006602090815260408083208584528252808320548484528184208190558352600790915290208190555b5060009182526007602090815260408084208490556001600160a01b039094168352600681528383209183525290812055565b600854600090611de9906001906124a9565b60008381526009602052604081205460088054939450909284908110611e1f57634e487b7160e01b600052603260045260246000fd5b906000526020600020015490508060088381548110611e4e57634e487b7160e01b600052603260045260246000fd5b6000918252602080832090910192909255828152600990915260408082208490558582528120556008805480611e9457634e487b7160e01b600052603160045260246000fd5b6001900381819060005260206000200160009055905550505050565b6000611ebb83610bf5565b6001600160a01b039093166000908152600660209081526040808320868452825280832085905593825260079052919091209190915550565b828054611f009061250f565b90600052602060002090601f016020900481019282611f225760008555611f68565b82601f10611f3b57805160ff1916838001178555611f68565b82800160010185558215611f68579182015b82811115611f68578251825591602001919060010190611f4d565b50611f74929150611f78565b5090565b5b80821115611f745760008155600101611f79565b600067ffffffffffffffff80841115611fa857611fa86125a5565b604051601f8501601f19908116603f01168101908282118183101715611fd057611fd06125a5565b81604052809350858152868686011115611fe957600080fd5b858560208301376000602087830101525050509392505050565b80356001600160a01b038116811461201a57600080fd5b919050565b8035801515811461201a57600080fd5b803560ff8116811461201a57600080fd5b600060208284031215612051578081fd5b6111c282612003565b6000806040838503121561206c578081fd5b61207583612003565b915061208360208401612003565b90509250929050565b6000806000606084860312156120a0578081fd5b6120a984612003565b92506120b760208501612003565b9150604084013590509250925092565b600080600080608085870312156120dc578081fd5b6120e585612003565b93506120f360208601612003565b925060408501359150606085013567ffffffffffffffff811115612115578182fd5b8501601f81018713612125578182fd5b61213487823560208401611f8d565b91505092959194509250565b60008060408385031215612152578182fd5b61215b83612003565b91506120836020840161201f565b6000806040838503121561217b578182fd5b61218483612003565b946020939093013593505050565b6000806000604084860312156121a6578283fd5b833567ffffffffffffffff808211156121bd578485fd5b818601915086601f8301126121d0578485fd5b8135818111156121de578586fd5b8760208260051b85010111156121f2578586fd5b602092830195509350612208918601905061202f565b90509250925092565b600060208284031215612222578081fd5b6111c28261201f565b60006020828403121561223c578081fd5b81356111c2816125bb565b600060208284031215612258578081fd5b81516111c2816125bb565b600060208284031215612274578081fd5b813567ffffffffffffffff81111561228a578182fd5b8201601f8101841361229a578182fd5b61161e84823560208401611f8d565b6000602082840312156122ba578081fd5b5035919050565b6000602082840312156122d2578081fd5b6111c28261202f565b600081518084526122f38160208601602086016124e3565b601f01601f19169290920160200192915050565b600083516123198184602088016124e3565b83519083019061232d8183602088016124e3565b01949350505050565b6001600160a01b0385811682528416602082015260408101839052608060608201819052600090612369908301846122db565b9695505050505050565b6020815260006111c260208301846122db565b60208082526032908201527f4552433732313a207472616e7366657220746f206e6f6e20455243373231526560408201527131b2b4bb32b91034b6b83632b6b2b73a32b960711b606082015260800190565b6020808252818101527f4f776e61626c653a2063616c6c6572206973206e6f7420746865206f776e6572604082015260600190565b60208082526031908201527f4552433732313a207472616e736665722063616c6c6572206973206e6f74206f6040820152701ddb995c881b9bdc88185c1c1c9bdd9959607a1b606082015260800190565b6000821982111561247157612471612579565b500190565b6000826124855761248561258f565b500490565b60008160001904831182151516156124a4576124a4612579565b500290565b6000828210156124bb576124bb612579565b500390565b600060ff821660ff8416808210156124da576124da612579565b90039392505050565b60005b838110156124fe5781810151838201526020016124e6565b83811115610e025750506000910152565b600181811c9082168061252357607f821691505b6020821081141561254457634e487b7160e01b600052602260045260246000fd5b50919050565b600060001982141561255e5761255e612579565b5060010190565b6000826125745761257461258f565b500690565b634e487b7160e01b600052601160045260246000fd5b634e487b7160e01b600052601260045260246000fd5b634e487b7160e01b600052604160045260246000fd5b6001600160e01b03198116811461145c57600080fdfea2646970667358221220f08990130d38dc5b8df26ad870541b5695d663bfe4d0bf9709f36a3957a33e3164736f6c63430008040033",
  "linkReferences": {},
  "deployedLinkReferences": {}
}