{
  "_format": "hh-sol-artifact-1",
  "contractName": "NFTSale",
  "sourceName": "contracts/nftsale.sol",
  "abi": [
    {
      "inputs": [],
      "stateMutability": "nonpayable",
      "type": "constructor"
    },
    {
      "anonymous": false,
      "inputs": [
        {
          "indexed": true,
          "internalType": "address",
          "name": "owner",
          "type": "address"
        },
        {
          "indexed": true,
          "internalType": "address",
          "name": "approved",
          "type": "address"
        },
        {
          "indexed": true,
          "internalType": "uint256",
          "name": "tokenId",
          "type": "uint256"
        }
      ],
      "name": "Approval",
      "type": "event"
    },
    {
      "anonymous": false,
      "inputs": [
        {
          "indexed": true,
          "internalType": "address",
          "name": "owner",
          "type": "address"
        },
        {
          "indexed": true,
          "internalType": "address",
          "name": "operator",
          "type": "address"
        },
        {
          "indexed": false,
          "internalType": "bool",
          "name": "approved",
          "type": "bool"
        }
      ],
      "name": "ApprovalForAll",
      "type": "event"
    },
    {
      "anonymous": false,
      "inputs": [
        {
          "indexed": true,
          "internalType": "address",
          "name": "previousOwner",
          "type": "address"
        },
        {
          "indexed": true,
          "internalType": "address",
          "name": "newOwner",
          "type": "address"
        }
      ],
      "name": "OwnershipTransferred",
      "type": "event"
    },
    {
      "anonymous": false,
      "inputs": [
        {
          "indexed": true,
          "internalType": "address",
          "name": "from",
          "type": "address"
        },
        {
          "indexed": true,
          "internalType": "address",
          "name": "to",
          "type": "address"
        },
        {
          "indexed": true,
          "internalType": "uint256",
          "name": "tokenId",
          "type": "uint256"
        }
      ],
      "name": "Transfer",
      "type": "event"
    },
    {
      "inputs": [],
      "name": "MAX_PUBLIC_MINT",
      "outputs": [
        {
          "internalType": "uint256",
          "name": "",
          "type": "uint256"
        }
      ],
      "stateMutability": "view",
      "type": "function"
    },
    {
      "inputs": [],
      "name": "MAX_SUPPLY",
      "outputs": [
        {
          "internalType": "uint256",
          "name": "",
          "type": "uint256"
        }
      ],
      "stateMutability": "view",
      "type": "function"
    },
    {
      "inputs": [],
      "name": "PRICE_PER_TOKEN",
      "outputs": [
        {
          "internalType": "uint256",
          "name": "",
          "type": "uint256"
        }
      ],
      "stateMutability": "view",
      "type": "function"
    },
    {
      "inputs": [],
      "name": "PROVENANCE",
      "outputs": [
        {
          "internalType": "string",
          "name": "",
          "type": "string"
        }
      ],
      "stateMutability": "view",
      "type": "function"
    },
    {
      "inputs": [
        {
          "internalType": "address",
          "name": "to",
          "type": "address"
        },
        {
          "internalType": "uint256",
          "name": "tokenId",
          "type": "uint256"
        }
      ],
      "name": "approve",
      "outputs": [],
      "stateMutability": "nonpayable",
      "type": "function"
    },
    {
      "inputs": [
        {
          "internalType": "address",
          "name": "owner",
          "type": "address"
        }
      ],
      "name": "balanceOf",
      "outputs": [
        {
          "internalType": "uint256",
          "name": "",
          "type": "uint256"
        }
      ],
      "stateMutability": "view",
      "type": "function"
    },
    {
      "inputs": [
        {
          "internalType": "uint256",
          "name": "tokenId",
          "type": "uint256"
        }
      ],
      "name": "getApproved",
      "outputs": [
        {
          "internalType": "address",
          "name": "",
          "type": "address"
        }
      ],
      "stateMutability": "view",
      "type": "function"
    },
    {
      "inputs": [],
      "name": "isAllowListActive",
      "outputs": [
        {
          "internalType": "bool",
          "name": "",
          "type": "bool"
        }
      ],
      "stateMutability": "view",
      "type": "function"
    },
    {
      "inputs": [
        {
          "internalType": "address",
          "name": "owner",
          "type": "address"
        },
        {
          "internalType": "address",
          "name": "operator",
          "type": "address"
        }
      ],
      "name": "isApprovedForAll",
      "outputs": [
        {
          "internalType": "bool",
          "name": "",
          "type": "bool"
        }
      ],
      "stateMutability": "view",
      "type": "function"
    },
    {
      "inputs": [
        {
          "internalType": "uint256",
          "name": "numberOfTokens",
          "type": "uint256"
        }
      ],
      "name": "mint",
      "outputs": [],
      "stateMutability": "payable",
      "type": "function"
    },
    {
      "inputs": [
        {
          "internalType": "uint8",
          "name": "numberOfTokens",
          "type": "uint8"
        }
      ],
      "name": "mintAllowList",
      "outputs": [],
      "stateMutability": "payable",
      "type": "function"
    },
    {
      "inputs": [],
      "name": "name",
      "outputs": [
        {
          "internalType": "string",
          "name": "",
          "type": "string"
        }
      ],
      "stateMutability": "view",
      "type": "function"
    },
    {
      "inputs": [
        {
          "internalType": "address",
          "name": "addr",
          "type": "address"
        }
      ],
      "name": "numAvailableToMint",
      "outputs": [
        {
          "internalType": "uint8",
          "name": "",
          "type": "uint8"
        }
      ],
      "stateMutability": "view",
      "type": "function"
    },
    {
      "inputs": [],
      "name": "owner",
      "outputs": [
        {
          "internalType": "address",
          "name": "",
          "type": "address"
        }
      ],
      "stateMutability": "view",
      "type": "function"
    },
    {
      "inputs": [
        {
          "internalType": "uint256",
          "name": "tokenId",
          "type": "uint256"
        }
      ],
      "name": "ownerOf",
      "outputs": [
        {
          "internalType": "address",
          "name": "",
          "type": "address"
        }
      ],
      "stateMutability": "view",
      "type": "function"
    },
    {
      "inputs": [],
      "name": "renounceOwnership",
      "outputs": [],
      "stateMutability": "nonpayable",
      "type": "function"
    },
    {
      "inputs": [
        {
          "internalType": "uint256",
          "name": "n",
          "type": "uint256"
        }
      ],
      "name": "reserve",
      "outputs": [],
      "stateMutability": "nonpayable",
      "type": "function"
    },
    {
      "inputs": [
        {
          "internalType": "address",
          "name": "from",
          "type": "address"
        },
        {
          "internalType": "address",
          "name": "to",
          "type": "address"
        },
        {
          "internalType": "uint256",
          "name": "tokenId",
          "type": "uint256"
        }
      ],
      "name": "safeTransferFrom",
      "outputs": [],
      "stateMutability": "nonpayable",
      "type": "function"
    },
    {
      "inputs": [
        {
          "internalType": "address",
          "name": "from",
          "type": "address"
        },
        {
          "internalType": "address",
          "name": "to",
          "type": "address"
        },
        {
          "internalType": "uint256",
          "name": "tokenId",
          "type": "uint256"
        },
        {
          "internalType": "bytes",
          "name": "_data",
          "type": "bytes"
        }
      ],
      "name": "safeTransferFrom",
      "outputs": [],
      "stateMutability": "nonpayable",
      "type": "function"
    },
    {
      "inputs": [],
      "name": "saleIsActive",
      "outputs": [
        {
          "internalType": "bool",
          "name": "",
          "type": "bool"
        }
      ],
      "stateMutability": "view",
      "type": "function"
    },
    {
      "inputs": [
        {
          "internalType": "address[]",
          "name": "addresses",
          "type": "address[]"
        },
        {
          "internalType": "uint8",
          "name": "numAllowedToMint",
          "type": "uint8"
        }
      ],
      "name": "setAllowList",
      "outputs": [],
      "stateMutability": "nonpayable",
      "type": "function"
    },
    {
      "inputs": [
        {
          "internalType": "address",
          "name": "operator",
          "type": "address"
        },
        {
          "internalType": "bool",
          "name": "approved",
          "type": "bool"
        }
      ],
      "name": "setApprovalForAll",
      "outputs": [],
      "stateMutability": "nonpayable",
      "type": "function"
    },
    {
      "inputs": [
        {
          "internalType": "string",
          "name": "baseURI_",
          "type": "string"
        }
      ],
      "name": "setBaseURI",
      "outputs": [],
      "stateMutability": "nonpayable",
      "type": "function"
    },
    {
      "inputs": [
        {
          "internalType": "bool",
          "name": "_isAllowListActive",
          "type": "bool"
        }
      ],
      "name": "setIsAllowListActive",
      "outputs": [],
      "stateMutability": "nonpayable",
      "type": "function"
    },
    {
      "inputs": [
        {
          "internalType": "string",
          "name": "provenance",
          "type": "string"
        }
      ],
      "name": "setProvenance",
      "outputs": [],
      "stateMutability": "nonpayable",
      "type": "function"
    },
    {
      "inputs": [
        {
          "internalType": "bool",
          "name": "newState",
          "type": "bool"
        }
      ],
      "name": "setSaleState",
      "outputs": [],
      "stateMutability": "nonpayable",
      "type": "function"
    },
    {
      "inputs": [
        {
          "internalType": "bytes4",
          "name": "interfaceId",
          "type": "bytes4"
        }
      ],
      "name": "supportsInterface",
      "outputs": [
        {
          "internalType": "bool",
          "name": "",
          "type": "bool"
        }
      ],
      "stateMutability": "view",
      "type": "function"
    },
    {
      "inputs": [],
      "name": "symbol",
      "outputs": [
        {
          "internalType": "string",
          "name": "",
          "type": "string"
        }
      ],
      "stateMutability": "view",
      "type": "function"
    },
    {
      "inputs": [
        {
          "internalType": "uint256",
          "name": "index",
          "type": "uint256"
        }
      ],
      "name": "tokenByIndex",
      "outputs": [
        {
          "internalType": "uint256",
          "name": "",
          "type": "uint256"
        }
      ],
      "stateMutability": "view",
      "type": "function"
    },
    {
      "inputs": [
        {
          "internalType": "address",
          "name": "owner",
          "type": "address"
        },
        {
          "internalType": "uint256",
          "name": "index",
          "type": "uint256"
        }
      ],
      "name": "tokenOfOwnerByIndex",
      "outputs": [
        {
          "internalType": "uint256",
          "name": "",
          "type": "uint256"
        }
      ],
      "stateMutability": "view",
      "type": "function"
    },
    {
      "inputs": [
        {
          "internalType": "uint256",
          "name": "tokenId",
          "type": "uint256"
        }
      ],
      "name": "tokenURI",
      "outputs": [
        {
          "internalType": "string",
          "name": "",
          "type": "string"
        }
      ],
      "stateMutability": "view",
      "type": "function"
    },
    {
      "inputs": [],
      "name": "totalSupply",
      "outputs": [
        {
          "internalType": "uint256",
          "name": "",
          "type": "uint256"
        }
      ],
      "stateMutability": "view",
      "type": "function"
    },
    {
      "inputs": [
        {
          "internalType": "address",
          "name": "from",
          "type": "address"
        },
        {
          "internalType": "address",
          "name": "to",
          "type": "address"
        },
        {
          "internalType": "uint256",
          "name": "tokenId",
          "type": "uint256"
        }
      ],
      "name": "transferFrom",
      "outputs": [],
      "stateMutability": "nonpayable",
      "type": "function"
    },
    {
      "inputs": [
        {
          "internalType": "address",
          "name": "newOwner",
          "type": "address"
        }
      ],
      "name": "transferOwnership",
      "outputs": [],
      "stateMutability": "nonpayable",
      "type": "function"
    },
    {
      "inputs": [],
      "name": "withdraw",
      "outputs": [],
      "stateMutability": "nonpayable",
      "type": "function"
    }
  ],
  "bytecode": "0x60806040526000600c60006101000a81548160ff0219169083151502179055506000600e60006101000a81548160ff0219169083151502179055503480156200004757600080fd5b506040518060400160405280600781526020017f446f6f646c6573000000000000000000000000000000000000000000000000008152506040518060400160405280600681526020017f444f4f444c4500000000000000000000000000000000000000000000000000008152508160009080519060200190620000cc929190620001dc565b508060019080519060200190620000e5929190620001dc565b50505062000108620000fc6200010e60201b60201c565b6200011660201b60201c565b620002f1565b600033905090565b6000600a60009054906101000a900473ffffffffffffffffffffffffffffffffffffffff16905081600a60006101000a81548173ffffffffffffffffffffffffffffffffffffffff021916908373ffffffffffffffffffffffffffffffffffffffff1602179055508173ffffffffffffffffffffffffffffffffffffffff168173ffffffffffffffffffffffffffffffffffffffff167f8be0079c531659141344cd1fd0a4f28419497f9722a3daafe3b4186f6b6457e060405160405180910390a35050565b828054620001ea906200028c565b90600052602060002090601f0160209004810192826200020e57600085556200025a565b82601f106200022957805160ff19168380011785556200025a565b828001600101855582156200025a579182015b82811115620002595782518255916020019190600101906200023c565b5b5090506200026991906200026d565b5090565b5b80821115620002885760008160009055506001016200026e565b5090565b60006002820490506001821680620002a557607f821691505b60208210811415620002bc57620002bb620002c2565b5b50919050565b7f4e487b7100000000000000000000000000000000000000000000000000000000600052602260045260246000fd5b61480380620003016000396000f3fe6080604052600436106102045760003560e01c8063715018a611610118578063b88d4fde116100a0578063ddff5b1c1161006f578063ddff5b1c14610758578063e985e9c514610774578063eb8d2444146107b1578063f2fde38b146107dc578063ffe630b51461080557610204565b8063b88d4fde1461068c578063c04a2836146106b5578063c4e37095146106f2578063c87b56dd1461071b57610204565b8063833b9499116100e7578063833b9499146105c65780638da5cb5b146105f157806395d89b411461061c578063a0712d6814610647578063a22cb4651461066357610204565b8063715018a614610534578063718bc4af1461054b578063819b25ba146105745780638295784d1461059d57610204565b806332cb6b0c1161019b57806355f804b31161016a57806355f804b31461043b5780636352211e146104645780636373a6b1146104a157806365f13097146104cc57806370a08231146104f757610204565b806332cb6b0c146103935780633ccfd60b146103be57806342842e0e146103d55780634f6ccce7146103fe57610204565b806318160ddd116101d757806318160ddd146102d757806323b872dd1461030257806329fc6bae1461032b5780632f745c591461035657610204565b806301ffc9a71461020957806306fdde0314610246578063081812fc14610271578063095ea7b3146102ae575b600080fd5b34801561021557600080fd5b50610230600480360381019061022b9190613398565b61082e565b60405161023d919061392f565b60405180910390f35b34801561025257600080fd5b5061025b610840565b604051610268919061394a565b60405180910390f35b34801561027d57600080fd5b506102986004803603810190610293919061342b565b6108d2565b6040516102a591906138c8565b60405180910390f35b3480156102ba57600080fd5b506102d560048036038101906102d091906132db565b610957565b005b3480156102e357600080fd5b506102ec610a6f565b6040516102f99190613c6c565b60405180910390f35b34801561030e57600080fd5b50610329600480360381019061032491906131d5565b610a7c565b005b34801561033757600080fd5b50610340610adc565b60405161034d919061392f565b60405180910390f35b34801561036257600080fd5b5061037d600480360381019061037891906132db565b610aef565b60405161038a9190613c6c565b60405180910390f35b34801561039f57600080fd5b506103a8610b94565b6040516103b59190613c6c565b60405180910390f35b3480156103ca57600080fd5b506103d3610b9a565b005b3480156103e157600080fd5b506103fc60048036038101906103f791906131d5565b610c65565b005b34801561040a57600080fd5b506104256004803603810190610420919061342b565b610c85565b6040516104329190613c6c565b60405180910390f35b34801561044757600080fd5b50610462600480360381019061045d91906133ea565b610d1c565b005b34801561047057600080fd5b5061048b6004803603810190610486919061342b565b610db2565b60405161049891906138c8565b60405180910390f35b3480156104ad57600080fd5b506104b6610e64565b6040516104c3919061394a565b60405180910390f35b3480156104d857600080fd5b506104e1610ef2565b6040516104ee9190613c6c565b60405180910390f35b34801561050357600080fd5b5061051e60048036038101906105199190613170565b610ef7565b60405161052b9190613c6c565b60405180910390f35b34801561054057600080fd5b50610549610faf565b005b34801561055757600080fd5b50610572600480360381019061056d919061336f565b611037565b005b34801561058057600080fd5b5061059b6004803603810190610596919061342b565b6110d0565b005b3480156105a957600080fd5b506105c460048036038101906105bf9190613317565b611190565b005b3480156105d257600080fd5b506105db6112d8565b6040516105e89190613c6c565b60405180910390f35b3480156105fd57600080fd5b506106066112e4565b60405161061391906138c8565b60405180910390f35b34801561062857600080fd5b5061063161130e565b60405161063e919061394a565b60405180910390f35b610661600480360381019061065c919061342b565b6113a0565b005b34801561066f57600080fd5b5061068a6004803603810190610685919061329f565b61151d565b005b34801561069857600080fd5b506106b360048036038101906106ae9190613224565b61169e565b005b3480156106c157600080fd5b506106dc60048036038101906106d79190613170565b611700565b6040516106e99190613c87565b60405180910390f35b3480156106fe57600080fd5b506107196004803603810190610714919061336f565b611756565b005b34801561072757600080fd5b50610742600480360381019061073d919061342b565b6117ef565b60405161074f919061394a565b60405180910390f35b610772600480360381019061076d9190613454565b611896565b005b34801561078057600080fd5b5061079b60048036038101906107969190613199565b611ae0565b6040516107a8919061392f565b60405180910390f35b3480156107bd57600080fd5b506107c6611b74565b6040516107d3919061392f565b60405180910390f35b3480156107e857600080fd5b5061080360048036038101906107fe9190613170565b611b87565b005b34801561081157600080fd5b5061082c600480360381019061082791906133ea565b611c7f565b005b600061083982611d15565b9050919050565b60606000805461084f90613f78565b80601f016020809104026020016040519081016040528092919081815260200182805461087b90613f78565b80156108c85780601f1061089d576101008083540402835291602001916108c8565b820191906000526020600020905b8154815290600101906020018083116108ab57829003601f168201915b5050505050905090565b60006108dd82611d8f565b61091c576040517f08c379a000000000000000000000000000000000000000000000000000000000815260040161091390613b0c565b60405180910390fd5b6004600083815260200190815260200160002060009054906101000a900473ffffffffffffffffffffffffffffffffffffffff169050919050565b600061096282610db2565b90508073ffffffffffffffffffffffffffffffffffffffff168373ffffffffffffffffffffffffffffffffffffffff1614156109d3576040517f08c379a00000000000000000000000000000000000000000000000000000000081526004016109ca90613bac565b60405180910390fd5b8073ffffffffffffffffffffffffffffffffffffffff166109f2611dfb565b73ffffffffffffffffffffffffffffffffffffffff161480610a215750610a2081610a1b611dfb565b611ae0565b5b610a60576040517f08c379a0000000000000000000000000000000000000000000000000000000008152600401610a5790613a8c565b60405180910390fd5b610a6a8383611e03565b505050565b6000600880549050905090565b610a8d610a87611dfb565b82611ebc565b610acc576040517f08c379a0000000000000000000000000000000000000000000000000000000008152600401610ac390613c0c565b60405180910390fd5b610ad7838383611f9a565b505050565b600e60009054906101000a900460ff1681565b6000610afa83610ef7565b8210610b3b576040517f08c379a0000000000000000000000000000000000000000000000000000000008152600401610b329061396c565b60405180910390fd5b600660008473ffffffffffffffffffffffffffffffffffffffff1673ffffffffffffffffffffffffffffffffffffffff168152602001908152602001600020600083815260200190815260200160002054905092915050565b61271081565b610ba2611dfb565b73ffffffffffffffffffffffffffffffffffffffff16610bc06112e4565b73ffffffffffffffffffffffffffffffffffffffff1614610c16576040517f08c379a0000000000000000000000000000000000000000000000000000000008152600401610c0d90613b2c565b60405180910390fd5b60004790503373ffffffffffffffffffffffffffffffffffffffff166108fc829081150290604051600060405180830381858888f19350505050158015610c61573d6000803e3d6000fd5b5050565b610c808383836040518060200160405280600081525061169e565b505050565b6000610c8f610a6f565b8210610cd0576040517f08c379a0000000000000000000000000000000000000000000000000000000008152600401610cc790613c2c565b60405180910390fd5b60088281548110610d0a577f4e487b7100000000000000000000000000000000000000000000000000000000600052603260045260246000fd5b90600052602060002001549050919050565b610d24611dfb565b73ffffffffffffffffffffffffffffffffffffffff16610d426112e4565b73ffffffffffffffffffffffffffffffffffffffff1614610d98576040517f08c379a0000000000000000000000000000000000000000000000000000000008152600401610d8f90613b2c565b60405180910390fd5b80600d9080519060200190610dae929190612f35565b5050565b6000806002600084815260200190815260200160002060009054906101000a900473ffffffffffffffffffffffffffffffffffffffff169050600073ffffffffffffffffffffffffffffffffffffffff168173ffffffffffffffffffffffffffffffffffffffff161415610e5b576040517f08c379a0000000000000000000000000000000000000000000000000000000008152600401610e5290613acc565b60405180910390fd5b80915050919050565b600b8054610e7190613f78565b80601f0160208091040260200160405190810160405280929190818152602001828054610e9d90613f78565b8015610eea5780601f10610ebf57610100808354040283529160200191610eea565b820191906000526020600020905b815481529060010190602001808311610ecd57829003601f168201915b505050505081565b600581565b60008073ffffffffffffffffffffffffffffffffffffffff168273ffffffffffffffffffffffffffffffffffffffff161415610f68576040517f08c379a0000000000000000000000000000000000000000000000000000000008152600401610f5f90613aac565b60405180910390fd5b600360008373ffffffffffffffffffffffffffffffffffffffff1673ffffffffffffffffffffffffffffffffffffffff168152602001908152602001600020549050919050565b610fb7611dfb565b73ffffffffffffffffffffffffffffffffffffffff16610fd56112e4565b73ffffffffffffffffffffffffffffffffffffffff161461102b576040517f08c379a000000000000000000000000000000000000000000000000000000000815260040161102290613b2c565b60405180910390fd5b61103560006121f6565b565b61103f611dfb565b73ffffffffffffffffffffffffffffffffffffffff1661105d6112e4565b73ffffffffffffffffffffffffffffffffffffffff16146110b3576040517f08c379a00000000000000000000000000000000000000000000000000000000081526004016110aa90613b2c565b60405180910390fd5b80600e60006101000a81548160ff02191690831515021790555050565b6110d8611dfb565b73ffffffffffffffffffffffffffffffffffffffff166110f66112e4565b73ffffffffffffffffffffffffffffffffffffffff161461114c576040517f08c379a000000000000000000000000000000000000000000000000000000000815260040161114390613b2c565b60405180910390fd5b6000611156610a6f565b905060005b8281101561118b576111783382846111739190613d6c565b6122bc565b808061118390613fdb565b91505061115b565b505050565b611198611dfb565b73ffffffffffffffffffffffffffffffffffffffff166111b66112e4565b73ffffffffffffffffffffffffffffffffffffffff161461120c576040517f08c379a000000000000000000000000000000000000000000000000000000000815260040161120390613b2c565b60405180910390fd5b60005b838390508110156112d25781600f6000868685818110611258577f4e487b7100000000000000000000000000000000000000000000000000000000600052603260045260246000fd5b905060200201602081019061126d9190613170565b73ffffffffffffffffffffffffffffffffffffffff1673ffffffffffffffffffffffffffffffffffffffff16815260200190815260200160002060006101000a81548160ff021916908360ff16021790555080806112ca90613fdb565b91505061120f565b50505050565b6701b4fbd92b5f800081565b6000600a60009054906101000a900473ffffffffffffffffffffffffffffffffffffffff16905090565b60606001805461131d90613f78565b80601f016020809104026020016040519081016040528092919081815260200182805461134990613f78565b80156113965780601f1061136b57610100808354040283529160200191611396565b820191906000526020600020905b81548152906001019060200180831161137957829003601f168201915b5050505050905090565b60006113aa610a6f565b9050600c60009054906101000a900460ff166113fb576040517f08c379a00000000000000000000000000000000000000000000000000000000081526004016113f290613b8c565b60405180910390fd5b600582111561143f576040517f08c379a000000000000000000000000000000000000000000000000000000000815260040161143690613bcc565b60405180910390fd5b612710828261144e9190613d6c565b111561148f576040517f08c379a0000000000000000000000000000000000000000000000000000000008152600401611486906139cc565b60405180910390fd5b34826701b4fbd92b5f80006114a49190613df3565b11156114e5576040517f08c379a00000000000000000000000000000000000000000000000000000000081526004016114dc90613a4c565b60405180910390fd5b60005b82811015611518576115053382846115009190613d6c565b6122bc565b808061151090613fdb565b9150506114e8565b505050565b611525611dfb565b73ffffffffffffffffffffffffffffffffffffffff168273ffffffffffffffffffffffffffffffffffffffff161415611593576040517f08c379a000000000000000000000000000000000000000000000000000000000815260040161158a90613a2c565b60405180910390fd5b80600560006115a0611dfb565b73ffffffffffffffffffffffffffffffffffffffff1673ffffffffffffffffffffffffffffffffffffffff16815260200190815260200160002060008473ffffffffffffffffffffffffffffffffffffffff1673ffffffffffffffffffffffffffffffffffffffff16815260200190815260200160002060006101000a81548160ff0219169083151502179055508173ffffffffffffffffffffffffffffffffffffffff1661164d611dfb565b73ffffffffffffffffffffffffffffffffffffffff167f17307eab39ab6107e8899845ad3d59bd9653f200f220920489ca2b5937696c3183604051611692919061392f565b60405180910390a35050565b6116af6116a9611dfb565b83611ebc565b6116ee576040517f08c379a00000000000000000000000000000000000000000000000000000000081526004016116e590613c0c565b60405180910390fd5b6116fa848484846122da565b50505050565b6000600f60008373ffffffffffffffffffffffffffffffffffffffff1673ffffffffffffffffffffffffffffffffffffffff16815260200190815260200160002060009054906101000a900460ff169050919050565b61175e611dfb565b73ffffffffffffffffffffffffffffffffffffffff1661177c6112e4565b73ffffffffffffffffffffffffffffffffffffffff16146117d2576040517f08c379a00000000000000000000000000000000000000000000000000000000081526004016117c990613b2c565b60405180910390fd5b80600c60006101000a81548160ff02191690831515021790555050565b60606117fa82611d8f565b611839576040517f08c379a000000000000000000000000000000000000000000000000000000000815260040161183090613b6c565b60405180910390fd5b6000611843612336565b90506000815111611863576040518060200160405280600081525061188e565b8061186d846123c8565b60405160200161187e9291906138a4565b6040516020818303038152906040525b915050919050565b60006118a0610a6f565b9050600e60009054906101000a900460ff166118f1576040517f08c379a00000000000000000000000000000000000000000000000000000000081526004016118e890613c4c565b60405180910390fd5b600f60003373ffffffffffffffffffffffffffffffffffffffff1673ffffffffffffffffffffffffffffffffffffffff16815260200190815260200160002060009054906101000a900460ff1660ff168260ff161115611986576040517f08c379a000000000000000000000000000000000000000000000000000000000815260040161197d90613bec565b60405180910390fd5b6127108260ff16826119989190613d6c565b11156119d9576040517f08c379a00000000000000000000000000000000000000000000000000000000081526004016119d0906139cc565b60405180910390fd5b348260ff166701b4fbd92b5f80006119f19190613df3565b1115611a32576040517f08c379a0000000000000000000000000000000000000000000000000000000008152600401611a2990613a4c565b60405180910390fd5b81600f60003373ffffffffffffffffffffffffffffffffffffffff1673ffffffffffffffffffffffffffffffffffffffff16815260200190815260200160002060008282829054906101000a900460ff16611a8d9190613e81565b92506101000a81548160ff021916908360ff16021790555060005b8260ff16811015611adb57611ac8338284611ac39190613d6c565b6122bc565b8080611ad390613fdb565b915050611aa8565b505050565b6000600560008473ffffffffffffffffffffffffffffffffffffffff1673ffffffffffffffffffffffffffffffffffffffff16815260200190815260200160002060008373ffffffffffffffffffffffffffffffffffffffff1673ffffffffffffffffffffffffffffffffffffffff16815260200190815260200160002060009054906101000a900460ff16905092915050565b600c60009054906101000a900460ff1681565b611b8f611dfb565b73ffffffffffffffffffffffffffffffffffffffff16611bad6112e4565b73ffffffffffffffffffffffffffffffffffffffff1614611c03576040517f08c379a0000000000000000000000000000000000000000000000000000000008152600401611bfa90613b2c565b60405180910390fd5b600073ffffffffffffffffffffffffffffffffffffffff168173ffffffffffffffffffffffffffffffffffffffff161415611c73576040517f08c379a0000000000000000000000000000000000000000000000000000000008152600401611c6a906139ac565b60405180910390fd5b611c7c816121f6565b50565b611c87611dfb565b73ffffffffffffffffffffffffffffffffffffffff16611ca56112e4565b73ffffffffffffffffffffffffffffffffffffffff1614611cfb576040517f08c379a0000000000000000000000000000000000000000000000000000000008152600401611cf290613b2c565b60405180910390fd5b80600b9080519060200190611d11929190612f35565b5050565b60007f780e9d63000000000000000000000000000000000000000000000000000000007bffffffffffffffffffffffffffffffffffffffffffffffffffffffff1916827bffffffffffffffffffffffffffffffffffffffffffffffffffffffff19161480611d885750611d8782612575565b5b9050919050565b60008073ffffffffffffffffffffffffffffffffffffffff166002600084815260200190815260200160002060009054906101000a900473ffffffffffffffffffffffffffffffffffffffff1673ffffffffffffffffffffffffffffffffffffffff1614159050919050565b600033905090565b816004600083815260200190815260200160002060006101000a81548173ffffffffffffffffffffffffffffffffffffffff021916908373ffffffffffffffffffffffffffffffffffffffff160217905550808273ffffffffffffffffffffffffffffffffffffffff16611e7683610db2565b73ffffffffffffffffffffffffffffffffffffffff167f8c5be1e5ebec7d5bd14f71427d1e84f3dd0314c0f7b2291e5b200ac8c7c3b92560405160405180910390a45050565b6000611ec782611d8f565b611f06576040517f08c379a0000000000000000000000000000000000000000000000000000000008152600401611efd90613a6c565b60405180910390fd5b6000611f1183610db2565b90508073ffffffffffffffffffffffffffffffffffffffff168473ffffffffffffffffffffffffffffffffffffffff161480611f8057508373ffffffffffffffffffffffffffffffffffffffff16611f68846108d2565b73ffffffffffffffffffffffffffffffffffffffff16145b80611f915750611f908185611ae0565b5b91505092915050565b8273ffffffffffffffffffffffffffffffffffffffff16611fba82610db2565b73ffffffffffffffffffffffffffffffffffffffff1614612010576040517f08c379a000000000000000000000000000000000000000000000000000000000815260040161200790613b4c565b60405180910390fd5b600073ffffffffffffffffffffffffffffffffffffffff168273ffffffffffffffffffffffffffffffffffffffff161415612080576040517f08c379a000000000000000000000000000000000000000000000000000000000815260040161207790613a0c565b60405180910390fd5b61208b838383612657565b612096600082611e03565b6001600360008573ffffffffffffffffffffffffffffffffffffffff1673ffffffffffffffffffffffffffffffffffffffff16815260200190815260200160002060008282546120e69190613e4d565b925050819055506001600360008473ffffffffffffffffffffffffffffffffffffffff1673ffffffffffffffffffffffffffffffffffffffff168152602001908152602001600020600082825461213d9190613d6c565b92505081905550816002600083815260200190815260200160002060006101000a81548173ffffffffffffffffffffffffffffffffffffffff021916908373ffffffffffffffffffffffffffffffffffffffff160217905550808273ffffffffffffffffffffffffffffffffffffffff168473ffffffffffffffffffffffffffffffffffffffff167fddf252ad1be2c89b69c2b068fc378daa952ba7f163c4a11628f55a4df523b3ef60405160405180910390a4505050565b6000600a60009054906101000a900473ffffffffffffffffffffffffffffffffffffffff16905081600a60006101000a81548173ffffffffffffffffffffffffffffffffffffffff021916908373ffffffffffffffffffffffffffffffffffffffff1602179055508173ffffffffffffffffffffffffffffffffffffffff168173ffffffffffffffffffffffffffffffffffffffff167f8be0079c531659141344cd1fd0a4f28419497f9722a3daafe3b4186f6b6457e060405160405180910390a35050565b6122d6828260405180602001604052806000815250612667565b5050565b6122e5848484611f9a565b6122f1848484846126c2565b612330576040517f08c379a00000000000000000000000000000000000000000000000000000000081526004016123279061398c565b60405180910390fd5b50505050565b6060600d805461234590613f78565b80601f016020809104026020016040519081016040528092919081815260200182805461237190613f78565b80156123be5780601f10612393576101008083540402835291602001916123be565b820191906000526020600020905b8154815290600101906020018083116123a157829003601f168201915b5050505050905090565b60606000821415612410576040518060400160405280600181526020017f30000000000000000000000000000000000000000000000000000000000000008152509050612570565b600082905060005b6000821461244257808061242b90613fdb565b915050600a8261243b9190613dc2565b9150612418565b60008167ffffffffffffffff811115612484577f4e487b7100000000000000000000000000000000000000000000000000000000600052604160045260246000fd5b6040519080825280601f01601f1916602001820160405280156124b65781602001600182028036833780820191505090505b5090505b60008514612569576001826124cf9190613e4d565b9150600a856124de9190614024565b60306124ea9190613d6c565b60f81b818381518110612526577f4e487b7100000000000000000000000000000000000000000000000000000000600052603260045260246000fd5b60200101907effffffffffffffffffffffffffffffffffffffffffffffffffffffffffffff1916908160001a905350600a856125629190613dc2565b94506124ba565b8093505050505b919050565b60007f80ac58cd000000000000000000000000000000000000000000000000000000007bffffffffffffffffffffffffffffffffffffffffffffffffffffffff1916827bffffffffffffffffffffffffffffffffffffffffffffffffffffffff1916148061264057507f5b5e139f000000000000000000000000000000000000000000000000000000007bffffffffffffffffffffffffffffffffffffffffffffffffffffffff1916827bffffffffffffffffffffffffffffffffffffffffffffffffffffffff1916145b80612650575061264f82612859565b5b9050919050565b6126628383836128c3565b505050565b61267183836129d7565b61267e60008484846126c2565b6126bd576040517f08c379a00000000000000000000000000000000000000000000000000000000081526004016126b49061398c565b60405180910390fd5b505050565b60006126e38473ffffffffffffffffffffffffffffffffffffffff16612ba5565b1561284c578373ffffffffffffffffffffffffffffffffffffffff1663150b7a0261270c611dfb565b8786866040518563ffffffff1660e01b815260040161272e94939291906138e3565b602060405180830381600087803b15801561274857600080fd5b505af192505050801561277957506040513d601f19601f8201168201806040525081019061277691906133c1565b60015b6127fc573d80600081146127a9576040519150601f19603f3d011682016040523d82523d6000602084013e6127ae565b606091505b506000815114156127f4576040517f08c379a00000000000000000000000000000000000000000000000000000000081526004016127eb9061398c565b60405180910390fd5b805181602001fd5b63150b7a0260e01b7bffffffffffffffffffffffffffffffffffffffffffffffffffffffff1916817bffffffffffffffffffffffffffffffffffffffffffffffffffffffff191614915050612851565b600190505b949350505050565b60007f01ffc9a7000000000000000000000000000000000000000000000000000000007bffffffffffffffffffffffffffffffffffffffffffffffffffffffff1916827bffffffffffffffffffffffffffffffffffffffffffffffffffffffff1916149050919050565b6128ce838383612bb8565b600073ffffffffffffffffffffffffffffffffffffffff168373ffffffffffffffffffffffffffffffffffffffff1614156129115761290c81612bbd565b612950565b8173ffffffffffffffffffffffffffffffffffffffff168373ffffffffffffffffffffffffffffffffffffffff161461294f5761294e8382612c06565b5b5b600073ffffffffffffffffffffffffffffffffffffffff168273ffffffffffffffffffffffffffffffffffffffff1614156129935761298e81612d73565b6129d2565b8273ffffffffffffffffffffffffffffffffffffffff168273ffffffffffffffffffffffffffffffffffffffff16146129d1576129d08282612eb6565b5b5b505050565b600073ffffffffffffffffffffffffffffffffffffffff168273ffffffffffffffffffffffffffffffffffffffff161415612a47576040517f08c379a0000000000000000000000000000000000000000000000000000000008152600401612a3e90613aec565b60405180910390fd5b612a5081611d8f565b15612a90576040517f08c379a0000000000000000000000000000000000000000000000000000000008152600401612a87906139ec565b60405180910390fd5b612a9c60008383612657565b6001600360008473ffffffffffffffffffffffffffffffffffffffff1673ffffffffffffffffffffffffffffffffffffffff1681526020019081526020016000206000828254612aec9190613d6c565b92505081905550816002600083815260200190815260200160002060006101000a81548173ffffffffffffffffffffffffffffffffffffffff021916908373ffffffffffffffffffffffffffffffffffffffff160217905550808273ffffffffffffffffffffffffffffffffffffffff16600073ffffffffffffffffffffffffffffffffffffffff167fddf252ad1be2c89b69c2b068fc378daa952ba7f163c4a11628f55a4df523b3ef60405160405180910390a45050565b600080823b905060008111915050919050565b505050565b6008805490506009600083815260200190815260200160002081905550600881908060018154018082558091505060019003906000526020600020016000909190919091505550565b60006001612c1384610ef7565b612c1d9190613e4d565b9050600060076000848152602001908152602001600020549050818114612d02576000600660008673ffffffffffffffffffffffffffffffffffffffff1673ffffffffffffffffffffffffffffffffffffffff168152602001908152602001600020600084815260200190815260200160002054905080600660008773ffffffffffffffffffffffffffffffffffffffff1673ffffffffffffffffffffffffffffffffffffffff168152602001908152602001600020600084815260200190815260200160002081905550816007600083815260200190815260200160002081905550505b6007600084815260200190815260200160002060009055600660008573ffffffffffffffffffffffffffffffffffffffff1673ffffffffffffffffffffffffffffffffffffffff16815260200190815260200160002060008381526020019081526020016000206000905550505050565b60006001600880549050612d879190613e4d565b9050600060096000848152602001908152602001600020549050600060088381548110612ddd577f4e487b7100000000000000000000000000000000000000000000000000000000600052603260045260246000fd5b906000526020600020015490508060088381548110612e25577f4e487b7100000000000000000000000000000000000000000000000000000000600052603260045260246000fd5b906000526020600020018190555081600960008381526020019081526020016000208190555060096000858152602001908152602001600020600090556008805480612e9a577f4e487b7100000000000000000000000000000000000000000000000000000000600052603160045260246000fd5b6001900381819060005260206000200160009055905550505050565b6000612ec183610ef7565b905081600660008573ffffffffffffffffffffffffffffffffffffffff1673ffffffffffffffffffffffffffffffffffffffff168152602001908152602001600020600083815260200190815260200160002081905550806007600084815260200190815260200160002081905550505050565b828054612f4190613f78565b90600052602060002090601f016020900481019282612f635760008555612faa565b82601f10612f7c57805160ff1916838001178555612faa565b82800160010185558215612faa579182015b82811115612fa9578251825591602001919060010190612f8e565b5b509050612fb79190612fbb565b5090565b5b80821115612fd4576000816000905550600101612fbc565b5090565b6000612feb612fe684613cc7565b613ca2565b90508281526020810184848401111561300357600080fd5b61300e848285613f36565b509392505050565b600061302961302484613cf8565b613ca2565b90508281526020810184848401111561304157600080fd5b61304c848285613f36565b509392505050565b6000813590506130638161475a565b92915050565b60008083601f84011261307b57600080fd5b8235905067ffffffffffffffff81111561309457600080fd5b6020830191508360208202830111156130ac57600080fd5b9250929050565b6000813590506130c281614771565b92915050565b6000813590506130d781614788565b92915050565b6000815190506130ec81614788565b92915050565b600082601f83011261310357600080fd5b8135613113848260208601612fd8565b91505092915050565b600082601f83011261312d57600080fd5b813561313d848260208601613016565b91505092915050565b6000813590506131558161479f565b92915050565b60008135905061316a816147b6565b92915050565b60006020828403121561318257600080fd5b600061319084828501613054565b91505092915050565b600080604083850312156131ac57600080fd5b60006131ba85828601613054565b92505060206131cb85828601613054565b9150509250929050565b6000806000606084860312156131ea57600080fd5b60006131f886828701613054565b935050602061320986828701613054565b925050604061321a86828701613146565b9150509250925092565b6000806000806080858703121561323a57600080fd5b600061324887828801613054565b945050602061325987828801613054565b935050604061326a87828801613146565b925050606085013567ffffffffffffffff81111561328757600080fd5b613293878288016130f2565b91505092959194509250565b600080604083850312156132b257600080fd5b60006132c085828601613054565b92505060206132d1858286016130b3565b9150509250929050565b600080604083850312156132ee57600080fd5b60006132fc85828601613054565b925050602061330d85828601613146565b9150509250929050565b60008060006040848603121561332c57600080fd5b600084013567ffffffffffffffff81111561334657600080fd5b61335286828701613069565b935093505060206133658682870161315b565b9150509250925092565b60006020828403121561338157600080fd5b600061338f848285016130b3565b91505092915050565b6000602082840312156133aa57600080fd5b60006133b8848285016130c8565b91505092915050565b6000602082840312156133d357600080fd5b60006133e1848285016130dd565b91505092915050565b6000602082840312156133fc57600080fd5b600082013567ffffffffffffffff81111561341657600080fd5b6134228482850161311c565b91505092915050565b60006020828403121561343d57600080fd5b600061344b84828501613146565b91505092915050565b60006020828403121561346657600080fd5b60006134748482850161315b565b91505092915050565b61348681613eb5565b82525050565b61349581613ec7565b82525050565b60006134a682613d29565b6134b08185613d3f565b93506134c0818560208601613f45565b6134c981614111565b840191505092915050565b60006134df82613d34565b6134e98185613d50565b93506134f9818560208601613f45565b61350281614111565b840191505092915050565b600061351882613d34565b6135228185613d61565b9350613532818560208601613f45565b80840191505092915050565b600061354b602b83613d50565b915061355682614122565b604082019050919050565b600061356e603283613d50565b915061357982614171565b604082019050919050565b6000613591602683613d50565b915061359c826141c0565b604082019050919050565b60006135b4602083613d50565b91506135bf8261420f565b602082019050919050565b60006135d7601c83613d50565b91506135e282614238565b602082019050919050565b60006135fa602483613d50565b915061360582614261565b604082019050919050565b600061361d601983613d50565b9150613628826142b0565b602082019050919050565b6000613640601f83613d50565b915061364b826142d9565b602082019050919050565b6000613663602c83613d50565b915061366e82614302565b604082019050919050565b6000613686603883613d50565b915061369182614351565b604082019050919050565b60006136a9602a83613d50565b91506136b4826143a0565b604082019050919050565b60006136cc602983613d50565b91506136d7826143ef565b604082019050919050565b60006136ef602083613d50565b91506136fa8261443e565b602082019050919050565b6000613712602c83613d50565b915061371d82614467565b604082019050919050565b6000613735602083613d50565b9150613740826144b6565b602082019050919050565b6000613758602983613d50565b9150613763826144df565b604082019050919050565b600061377b602f83613d50565b91506137868261452e565b604082019050919050565b600061379e602283613d50565b91506137a98261457d565b604082019050919050565b60006137c1602183613d50565b91506137cc826145cc565b604082019050919050565b60006137e4601b83613d50565b91506137ef8261461b565b602082019050919050565b6000613807602283613d50565b915061381282614644565b604082019050919050565b600061382a603183613d50565b915061383582614693565b604082019050919050565b600061384d602c83613d50565b9150613858826146e2565b604082019050919050565b6000613870601883613d50565b915061387b82614731565b602082019050919050565b61388f81613f1f565b82525050565b61389e81613f29565b82525050565b60006138b0828561350d565b91506138bc828461350d565b91508190509392505050565b60006020820190506138dd600083018461347d565b92915050565b60006080820190506138f8600083018761347d565b613905602083018661347d565b6139126040830185613886565b8181036060830152613924818461349b565b905095945050505050565b6000602082019050613944600083018461348c565b92915050565b6000602082019050818103600083015261396481846134d4565b905092915050565b600060208201905081810360008301526139858161353e565b9050919050565b600060208201905081810360008301526139a581613561565b9050919050565b600060208201905081810360008301526139c581613584565b9050919050565b600060208201905081810360008301526139e5816135a7565b9050919050565b60006020820190508181036000830152613a05816135ca565b9050919050565b60006020820190508181036000830152613a25816135ed565b9050919050565b60006020820190508181036000830152613a4581613610565b9050919050565b60006020820190508181036000830152613a6581613633565b9050919050565b60006020820190508181036000830152613a8581613656565b9050919050565b60006020820190508181036000830152613aa581613679565b9050919050565b60006020820190508181036000830152613ac58161369c565b9050919050565b60006020820190508181036000830152613ae5816136bf565b9050919050565b60006020820190508181036000830152613b05816136e2565b9050919050565b60006020820190508181036000830152613b2581613705565b9050919050565b60006020820190508181036000830152613b4581613728565b9050919050565b60006020820190508181036000830152613b658161374b565b9050919050565b60006020820190508181036000830152613b858161376e565b9050919050565b60006020820190508181036000830152613ba581613791565b9050919050565b60006020820190508181036000830152613bc5816137b4565b9050919050565b60006020820190508181036000830152613be5816137d7565b9050919050565b60006020820190508181036000830152613c05816137fa565b9050919050565b60006020820190508181036000830152613c258161381d565b9050919050565b60006020820190508181036000830152613c4581613840565b9050919050565b60006020820190508181036000830152613c6581613863565b9050919050565b6000602082019050613c816000830184613886565b92915050565b6000602082019050613c9c6000830184613895565b92915050565b6000613cac613cbd565b9050613cb88282613faa565b919050565b6000604051905090565b600067ffffffffffffffff821115613ce257613ce16140e2565b5b613ceb82614111565b9050602081019050919050565b600067ffffffffffffffff821115613d1357613d126140e2565b5b613d1c82614111565b9050602081019050919050565b600081519050919050565b600081519050919050565b600082825260208201905092915050565b600082825260208201905092915050565b600081905092915050565b6000613d7782613f1f565b9150613d8283613f1f565b9250827fffffffffffffffffffffffffffffffffffffffffffffffffffffffffffffffff03821115613db757613db6614055565b5b828201905092915050565b6000613dcd82613f1f565b9150613dd883613f1f565b925082613de857613de7614084565b5b828204905092915050565b6000613dfe82613f1f565b9150613e0983613f1f565b9250817fffffffffffffffffffffffffffffffffffffffffffffffffffffffffffffffff0483118215151615613e4257613e41614055565b5b828202905092915050565b6000613e5882613f1f565b9150613e6383613f1f565b925082821015613e7657613e75614055565b5b828203905092915050565b6000613e8c82613f29565b9150613e9783613f29565b925082821015613eaa57613ea9614055565b5b828203905092915050565b6000613ec082613eff565b9050919050565b60008115159050919050565b60007fffffffff0000000000000000000000000000000000000000000000000000000082169050919050565b600073ffffffffffffffffffffffffffffffffffffffff82169050919050565b6000819050919050565b600060ff82169050919050565b82818337600083830152505050565b60005b83811015613f63578082015181840152602081019050613f48565b83811115613f72576000848401525b50505050565b60006002820490506001821680613f9057607f821691505b60208210811415613fa457613fa36140b3565b5b50919050565b613fb382614111565b810181811067ffffffffffffffff82111715613fd257613fd16140e2565b5b80604052505050565b6000613fe682613f1f565b91507fffffffffffffffffffffffffffffffffffffffffffffffffffffffffffffffff82141561401957614018614055565b5b600182019050919050565b600061402f82613f1f565b915061403a83613f1f565b92508261404a57614049614084565b5b828206905092915050565b7f4e487b7100000000000000000000000000000000000000000000000000000000600052601160045260246000fd5b7f4e487b7100000000000000000000000000000000000000000000000000000000600052601260045260246000fd5b7f4e487b7100000000000000000000000000000000000000000000000000000000600052602260045260246000fd5b7f4e487b7100000000000000000000000000000000000000000000000000000000600052604160045260246000fd5b6000601f19601f8301169050919050565b7f455243373231456e756d657261626c653a206f776e657220696e646578206f7560008201527f74206f6620626f756e6473000000000000000000000000000000000000000000602082015250565b7f4552433732313a207472616e7366657220746f206e6f6e20455243373231526560008201527f63656976657220696d706c656d656e7465720000000000000000000000000000602082015250565b7f4f776e61626c653a206e6577206f776e657220697320746865207a65726f206160008201527f6464726573730000000000000000000000000000000000000000000000000000602082015250565b7f507572636861736520776f756c6420657863656564206d617820746f6b656e73600082015250565b7f4552433732313a20746f6b656e20616c7265616479206d696e74656400000000600082015250565b7f4552433732313a207472616e7366657220746f20746865207a65726f2061646460008201527f7265737300000000000000000000000000000000000000000000000000000000602082015250565b7f4552433732313a20617070726f766520746f2063616c6c657200000000000000600082015250565b7f45746865722076616c75652073656e74206973206e6f7420636f727265637400600082015250565b7f4552433732313a206f70657261746f7220717565727920666f72206e6f6e657860008201527f697374656e7420746f6b656e0000000000000000000000000000000000000000602082015250565b7f4552433732313a20617070726f76652063616c6c6572206973206e6f74206f7760008201527f6e6572206e6f7220617070726f76656420666f7220616c6c0000000000000000602082015250565b7f4552433732313a2062616c616e636520717565727920666f7220746865207a6560008201527f726f206164647265737300000000000000000000000000000000000000000000602082015250565b7f4552433732313a206f776e657220717565727920666f72206e6f6e657869737460008201527f656e7420746f6b656e0000000000000000000000000000000000000000000000602082015250565b7f4552433732313a206d696e7420746f20746865207a65726f2061646472657373600082015250565b7f4552433732313a20617070726f76656420717565727920666f72206e6f6e657860008201527f697374656e7420746f6b656e0000000000000000000000000000000000000000602082015250565b7f4f776e61626c653a2063616c6c6572206973206e6f7420746865206f776e6572600082015250565b7f4552433732313a207472616e73666572206f6620746f6b656e2074686174206960008201527f73206e6f74206f776e0000000000000000000000000000000000000000000000602082015250565b7f4552433732314d657461646174613a2055524920717565727920666f72206e6f60008201527f6e6578697374656e7420746f6b656e0000000000000000000000000000000000602082015250565b7f53616c65206d7573742062652061637469766520746f206d696e7420746f6b6560008201527f6e73000000000000000000000000000000000000000000000000000000000000602082015250565b7f4552433732313a20617070726f76616c20746f2063757272656e74206f776e6560008201527f7200000000000000000000000000000000000000000000000000000000000000602082015250565b7f4578636565646564206d617820746f6b656e2070757263686173650000000000600082015250565b7f4578636565646564206d617820617661696c61626c6520746f2070757263686160008201527f7365000000000000000000000000000000000000000000000000000000000000602082015250565b7f4552433732313a207472616e736665722063616c6c6572206973206e6f74206f60008201527f776e6572206e6f7220617070726f766564000000000000000000000000000000602082015250565b7f455243373231456e756d657261626c653a20676c6f62616c20696e646578206f60008201527f7574206f6620626f756e64730000000000000000000000000000000000000000602082015250565b7f416c6c6f77206c697374206973206e6f74206163746976650000000000000000600082015250565b61476381613eb5565b811461476e57600080fd5b50565b61477a81613ec7565b811461478557600080fd5b50565b61479181613ed3565b811461479c57600080fd5b50565b6147a881613f1f565b81146147b357600080fd5b50565b6147bf81613f29565b81146147ca57600080fd5b5056fea2646970667358221220208f3f88383864969bb1e98c9d8efac851f7a898701aac43843745ab3de4825564736f6c63430008040033",
  "linkReferences": {},
  "deployedLinkReferences": {}
}